:020000040800F2
:100000001818002031020008911A0008031900088E
:100010008D1A000829050008912200080000000040
:10002000000000000000000000000000631C000849
:100030002D05000800000000CD1A0008151D00085D
:100040004B0200084B0200084B0200084B0200085C
:100050004B0200084B0200084B0200084B0200084C
:100060004B0200084B0200084B0200084B0200083C
:100070004B0200084B0200084B0200084B0200082C
:100080004B0200084B0200084B0200084B0200081C
:100090004B0200084B0200084B0200084B0200080C
:1000A0004B0200084B0200084B0200084B020008FC
:1000B0004B020008811D00084B0200084B0200089B
:1000C0004B0200084B0200084B0200084B020008DC
:1000D0004B020008512200084B0200084B020008A6
:1000E0004B0200084B0200084B0200084B020008BC
:1000F0004B0200084B0200084B0200084B020008AC
:100100004B0200084B0200084B0200084B0200089B
:100110004B0200084B0200084B0200084B0200088B
:100120004B0200084B0200084B0200084B0200087B
:100130004B0200084B0200084B0200084B0200086B
:100140004B0200084B0200084B0200084B0200085B
:100150004B0200084B0200084B0200084B0200084B
:100160004B0200084B0200084B0200084B0200083B
:100170004B0200084B0200084B0200080000000080
:100180004B0200084B02000800F002F800F041F8B2
:100190000AA090E8000C82448344AAF10107DA45E2
:1001A00001D100F036F8AFF2090EBAE80F0013F0F3
:1001B000010F18BFFB1A43F001031847D4260000B3
:1001C000F4260000103A24BF78C878C1FAD8520744
:1001D00024BF30C830C144BF04680C6070470000C1
:1001E0000023002400250026103A28BF78C1FBD840
:1001F000520728BF30C148BF0B607047632900F029
:100200002681002070471FB502F020FB1FBD10B5EE
:1002100010BD00F057F91146FFF7F5FF02F04CFA58
:1002200000F075F903B4FFF7F2FF03BC02F0FAF92E
:100230000948804709480047FEE7FEE7FEE7FEE77A
:10024000FEE7FEE7FEE7FEE7FEE7FEE704480549B6
:10025000054A064B704700001D1D00088901000873
:10026000181200201818002018140020181400205C
:10027000704753EA020C00F069802DE9F04B4FF013
:100280000006002B1FBFB3FA83F503FA05F424FA26
:1002900005F65E4012BF1643B2FA82F502FA05F483
:1002A000C5F120051EBF22FA05FC44EA0C042035E6
:1002B00056EA044C4FEA144418BF641C4FF000087F
:1002C0004FF00009904271EB030C39D3002919BF9C
:1002D000B1FA81F701FA07F6B0FA80F700FA07F6EB
:1002E000C7F120071EBF20FA07FC46EA0C0620379C
:1002F000B6FBF4FCA7EB0507103F07F01F0BCBF193
:1003000020060CFA0BFB2CFA06F644BFB346002677
:10031000202FA4BF5E464FF0000B5BEA060C08BF1F
:100320004FF0010B19EB0B09ABFB027C48EB060805
:10033000C01B06FB02CC0BFB03CC71EB0C01C1E72D
:100340000B46024641464846BDE8F08B13B54FF0D8
:1003500000004FF00001AFF30080BDE81C40704783
:100360000FB4044910B503AA029800F07DF810BC40
:100370005DF814FB080000202DE9F0410E4604460C
:10038000002020622046E168884730B3252805D048
:10039000D4E901219047206A401CF2E7E168204639
:1003A00000278847050018D0A5F14100192802D878
:1003B00020354FF400673246294620462760FFF774
:1003C0001DFF40B1012804D0F61D26F007060836AF
:1003D000D8E7361DD6E72846DAE7206ABDE8F0817F
:1003E00070B50C460546012A05D02878800600D550
:1003F000EA69002302E0012305E05B1C934202D27C
:10040000E05C0028F9D1A869E618C01AA861286A3A
:10041000184428622846AFF3008004E0D5E90121A2
:1004200014F8010B9047B442F8D32846AFF300808C
:1004300070BD704770477047704710B5436913B17E
:10044000AFF3008001E0FFF7CBFF012010BD127871
:1004500000F124010A7000224A700122EDE71168C0
:100460004FF0FF32E9E70000074B70B50D467B44C3
:1004700000F011F80446284600F020F810B14FF0C3
:10048000FF3070BD204670BD2B22000001694A1C60
:1004900002610878704700B58FB0CDE901310021C5
:1004A000059105497944CDE9031011466846FFF7E7
:1004B00063FF0FB000BD0000E5FFFFFF007B00F011
:1004C00080007047754600F02BF8AE46050069467F
:1004D000534620F00700854618B020B5FFF7B6FE5A
:1004E000BDE820404FF000064FF000074FF0000835
:1004F0004FF0000B21F00701AC46ACE8C009ACE8B6
:10050000C009ACE8C009ACE8C0098D46704710B519
:100510000446AFF300802046BDE81040FFF782BEDE
:1005200000487047B811002000BFFEE77047014641
:1005300091F83500022803D08020486501207047DB
:10054000052081F835000868006820F001000A687D
:1005500010600020F3E70000F8B502460B460025C6
:10056000002400200021DCE0012606FA01F51E68C7
:1005700006EA0504AC4273D15E68022E02D05E68C2
:10058000122E13D1CF0802F1200656F827004E078D
:10059000F70E0F26BE40B0434F07FF0E1E69BE4048
:1005A0003043CF0802F1200646F8270010684F00BC
:1005B0000326BE40B0431E7906F003064F00BE403E
:1005C000304310605E68012E08D05E68022E05D0B0
:1005D0005E68112E02D05E68122E13D190684F0013
:1005E0000326BE40B0434F00DE68BE4030439060FB
:1005F000506801268E40B0431E79C6F300168E4027
:1006000030435060D0684F000326BE40B0434F00D7
:100610009E68BE403043D0605E6806F08056B6F1FA
:10062000805F7DD100BF00260096404E366846F4BC
:1006300080463E4F3E603E46366806F48046009651
:1006400000BF00BF3A4E8F0856F827008E07370FBD
:100650000F26BE40B043374EB24202D1002624E0FE
:100660005EE0354EB24201D101261EE0334EB24269
:1006700001D1022619E0324EB24201D1032614E024
:10068000304EB24201D104260FE02F4EB24201D1CA
:1006900005260AE02D4EB24201D1062605E02C4E79
:1006A000B24201D1072600E008268F073F0FBE4067
:1006B00030431F4E8F0846F82700264E3068A0436F
:1006C0005E6806F48036B6F5803F00D12043214EA7
:1006D0003060361D3068A0435E6806F40036B6F51B
:1006E000003F00D120431B4E361D3060361D306860
:1006F000A0435E6806F48016B6F5801F00D1204343
:10070000144E08363060361D3068A0435E6806F42B
:100710000016B6F5001F00D120430E4E0C36306097
:10072000491C1029FFF420AFF8BD000044380240F6
:100730000838014000000240000402400008024066
:10074000000C024000100240001402400018024059
:10075000001C0240003C0140024613690B400BB1F3
:10076000012000E0002070470AB1816101E00B0424
:100770008361704701480068704700001000002046
:100780000348006803490978084401490860704734
:10079000100000201800002010B50D48006840F43B
:1007A00000700B4908600846006840F480600860EB
:1007B0000846006840F480700860032000F07CF870
:1007C0000F2000F007F800F02BF8002010BD00000B
:1007D000003C024070B504460E4800784FF47A7130
:1007E000B1FBF0F00C490968B1FBF0F5284600F0C8
:1007F000DDFD08B1012070BD102C07D2002221467A
:10080000501E00F01BF80548046001E00120F2E7EB
:100810000020F0E718000020000000201400002055
:10082000704700BF00F01F02012191404209920071
:1008300002F1E022C2F8001100BF70472DE9F05F1D
:1008400080460D461646002701F024F90746394632
:100850002A46334601F00700C0F1070ABAF1040F37
:1008600002D94FF0040A01E0C0F1070AD14600F1B5
:10087000040ABAF1070F02D24FF0000A01E0A0F11A
:10088000030AD4464FF0010A0AFA09FAAAF1010A4A
:100890000AEA020A0AFA0CFA4FF0010B0BFA0CFBF7
:1008A000ABF1010B0BEA030B4AEA0B04214640466D
:1008B00001F0F8F8BDE8F09F00BF00F00702064B1A
:1008C00019684FF6FF031940044B0B4343EA02211A
:1008D000014B196000BF70470CED00E00000FA0505
:1008E00070B504460D460CB9012070BD584800682B
:1008F00000F00F00A84209D255490D700846006863
:1009000000F00F00A84201D00120EEE7207800F0AF
:10091000020002281DD1207800F00400042805D12F
:100920004C48006840F4E0504A490860207800F0E4
:100930000800082805D14748006840F46040454950
:1009400008604448006820F0F000A168084341496D
:100950000860207800F00100A8B36068012807D182
:100960003C4808380068C0F34040B8B90120BCE7F3
:100970006068022802D06068032807D1354808382B
:100980000068C0F3406048B90120AEE7314808383C
:100990000068C0F3400008B90120A6E72D480068B0
:1009A00020F00300616808432A490860FFF7E2FE6F
:1009B000064609E0FFF7DEFE801B41F288318842DF
:1009C00002D9032091E707E02248006800F00C00FC
:1009D0006168B0EB810FEDD11D48006800F00F0099
:1009E000A84209D91A490D700846006800F00F00A6
:1009F000A84201D0012078E7207800F00400042804
:100A000007D11448006820F4E050E1680843114918
:100A10000860207800F00800082808D10D48006818
:100A200020F46040216940EAC1000A49086000F0F2
:100A30003DF808490968C1F30311074A515CC840F1
:100A4000064908600F20FFF7C5FE00204DE70000B3
:100A5000003C0240083802407728000800000020CF
:100A600001480068704700000000002000B5FFF753
:100A7000F7FF04490968C1F38221034A515CC84069
:100A800000BD0000083802408728000800B5FFF7C5
:100A9000E7FF04490968C1F34231034A515CC84089
:100AA00000BD000008380240872800082DE9F04703
:100AB000002400250026A1462548006800F00C000F
:100AC00020B1042805D008283AD105E0DFF8849049
:100AD00039E0DFF8849036E01D48001F006800F020
:100AE0003F041B48001F006800F4800078B11A48DA
:100AF0001749091F0968C1F38811A0FB017001465D
:100B0000224600233846FFF7B4FB05460EE01148A5
:100B10000F49091F0968C1F38811A0FB0170014644
:100B2000224600233846FFF7A4FB05460848001F6D
:100B30000068C0F30140401C4600B5FBF6F902E036
:100B4000DFF8109000BF00BF4846BDE8F087000006
:100B5000083802400024F40000127A00F8B5044678
:100B60000CB90120F8BD207800F00100002874D0F5
:100B7000F948006800F00C0004280DD0F648006821
:100B800000F00C00082813D1F348001F006800F49F
:100B90008000B0F5800F0BD1EF4808380068C0F333
:100BA0004040002859D06068002856D10120D9E77C
:100BB00000BF6068B0F5803F08D1E748083800689A
:100BC00040F48030E449083908601EE06068B0F500
:100BD000A02F0DD1E0480838006840F48020DE499D
:100BE000083908600846006840F4803008600CE06E
:100BF000D9480838006820F48030D749083908609F
:100C00000846006820F48020086000BF606890B14A
:100C1000FFF7B0FD054606E0FFF7ACFD401B64287A
:100C200001D903209EE7CC4808380068C0F3404053
:100C30000028F1D011E0FFF79DFD054606E0FFF723
:100C400099FD401B642801D903208BE7C24808386E
:100C50000068C0F340400028F1D1207800F0020085
:100C600002285FD1BC48006800F00C0058B1BA48B7
:100C7000006800F00C0008281CD1B748001F00686D
:100C800000F48000B0B9B44808380068C0F34000F0
:100C900020B1E068012801D0012063E7AE480838A0
:100CA000006820F0F800216940EAC100AA4908392B
:100CB000086037E0E06800B30120A8490860FFF74A
:100CC00059FD054606E0FFF755FD401B022801D9F6
:100CD000032047E7A04808380068C0F34000002818
:100CE000F1D09D480838006820F0F800216940EAFA
:100CF000C10099490839086014E00020974908604C
:100D0000FFF738FD054606E0FFF734FD401B0228DB
:100D100001D9032026E7904808380068C0F3400056
:100D20000028F1D1207800F0080008282CD1606953
:100D3000A8B101208A490860FFF71CFD054606E0BE
:100D4000FFF718FD401B022801D903200AE782485B
:100D50006C300068C0F340000028F1D014E000209F
:100D60007F490860FFF706FD054606E0FFF702FD34
:100D7000401B022801D90320F4E677486C30006854
:100D8000C0F340000028F1D1207800F004000428CE
:100D900070D1002670483830006800F0805090B95B
:100DA00000BF002000906C483830006840F0805050
:100DB0006949383108600846006800F080500090AA
:100DC00000BF00BF01266748006800F48070B0B91A
:100DD0006448006840F4807062490860FFF7CAFC0C
:100DE000054606E0FFF7C6FC401B022801D9032098
:100DF000B8E65C48006800F480700028F2D000BFBC
:100E0000A068012808D154486830006840F001000B
:100E10005149683108601DE0A06805280DD14E4891
:100E20006830006840F004004B49683108600846AB
:100E3000006840F0010008600CE047486830006836
:100E400020F001004449683108600846006820F03D
:100E50000400086000BFA068A8B1FFF78BFC05463E
:100E600009E0FFF787FC401B41F28831884202D934
:100E7000032077E626E0384868300068C0F3400079
:100E80000028EED013E0FFF775FC054608E0FFF7F9
:100E900071FC401B41F28831884201D9032061E690
:100EA0002D4868300068C0F340000028EFD1012EC3
:100EB00007D129483830006820F080502649383161
:100EC000086000BFA069B8B32348006800F00C00B8
:100ED00008285ED0A069022846D100201F49086674
:100EE000FFF748FC054606E0FFF744FC401B0228DC
:100EF00001D9032036E6184808380068C0F340607E
:100F00000028F1D1D4E907010843616A40EA811160
:100F10000122A06AC2EB500041EA00412C20005D92
:100F200041EA00600C49091F086001200B4908666E
:100F3000FFF720FC054607E02DE0FFF71BFC401BF8
:100F4000022801D903200DE6034808380068C0F3E1
:100F500040600028F1D01EE00838024000004742FF
:100F6000800E47420070004000200C490866FFF7E1
:100F700001FC054606E0FFF7FDFB401B022801D9F6
:100F80000320EFE506480068C0F340600028F2D176
:100F900001E00120E6E50020E4E500000000474212
:100FA0000038024010B504460CB9012010BD606A3B
:100FB00000B900BFA06AB0F5005F00D100BF94F88F
:100FC000510028B9002084F85000204600F03AF87B
:100FD000022084F851002068006820F04000216859
:100FE0000860D4E901010843E16808432169084326
:100FF00061690843218B01F400710843E1690843EA
:10100000216A0843A16A0843216808600421A06995
:1010100001EA1040616A084321684860A06AB0F59F
:10102000005F02D12168E06A08612068C06920F48D
:1010300000602168C86100206065012084F85100CB
:101040000020B3E710B586B0044600BF0020009032
:101050001748006840F0020015490860084600681B
:1010600000F00200009000BF00BF00BF0020009011
:101070000F481430006840F480500D491431086066
:101080000846006800F48050009000BF00BF382080
:10109000019002200290012003900220049005207C
:1010A000059001A90348FFF757FA06B010BD0000EC
:1010B00030380240000402402DE9FF5F04460D462F
:1010C00016461F46DDF838804FF0000A00200390D6
:1010D000029081464FF0010B019000BF94F8500040
:1010E000012803D1022004B0BDE8F09F012084F85C
:1010F000500000BFFFF73EFB814694F851A06068A6
:101100000390BAF1010F0BD00398B0F5827F04D1A0
:10111000A06810B9BAF1040F02D00220019027E1B3
:101120000DB106B117B90120019021E194F85100E9
:10113000012802D1052084F8510000206065A663D3
:10114000E787A7872563E786A78620646064A06A8F
:10115000B0F5005F0ED100BF206800684DF6FF714A
:101160000840216808602068006840F40050216849
:10117000086000BF2068006800F04000402805D0EB
:101180002068006840F0400021680860E068B0F521
:10119000006F4FD1606810B1E08E012806D1288819
:1011A0002168C860AD1CE08E401EE0863BE0BBF1CC
:1011B000000F1CD0E08ED0B12068806800F00200E3
:1011C000022814D128882168C860AD1CE08E401E1A
:1011D000E0864FF0000BE08E48B9A06AB0F5005FE2
:1011E00005D12068006840F4805021680860E08FD5
:1011F00068B12068806800F0010040B12068C068D4
:101200003080B61CE08F401EE0874FF0010B08F1E4
:10121000010040B1FFF7AEFAA0EB0900404502D350
:1012200003200190A4E0E08E0028C0D1E08F0028C8
:10123000BDD14EE0606810B1E08E012806D128785B
:10124000216808736D1CE08E401EE0863BE0BBF118
:10125000000F1CD0E08ED0B12068806800F0020042
:10126000022814D115F8010B21680873E08E401E86
:10127000E0864FF0000BE08E48B9A06AB0F5005F41
:1012800005D12068006840F4805021680860E08F34
:1012900068B12068806800F0010040B12068C06833
:1012A00006F8010BE08F401EE0874FF0010B08F1BC
:1012B000010040B1FFF75EFAA0EB0900404502D300
:1012C0000320019054E0E08E0028C0D1E08F002878
:1012D000BDD1A06AB0F5005F15D143460122114689
:1012E0002046CDF8009000F067FC30B1606D40F012
:1012F00002006065032001903AE02068C06880B277
:101300000290BDF808002068806800F010001028E6
:1013100009D1606D40F0020060654FF6EF70216802
:101320008860012001904346012202212046CDF829
:10133000009000F041FC10B10320019018E04A46F3
:101340004146204600F024FC20B1012001902020DD
:1013500060650DE0A06850B900BF002000902068D3
:10136000C068009020688068009000BF00BF00BF88
:10137000012084F8510000BF002084F8500000BF15
:101380000198B0E6042808D14FF0E021096941F046
:1013900004014FF0E022116107E04FF0E0210969FC
:1013A00021F004014FF0E0221161704770B504464E
:1013B0002546681EB0F1807F01D301200FE0681E32
:1013C0004FF0E02148610F214FF0FF3000F06AFB41
:1013D00000204FF0E021886107200861002070BDE7
:1013E00070477047704710B5044620680069C0F325
:1013F0004000D8B12068C068C0F34000B0B16FF0C1
:10140000020021680861012020762068806900F0D0
:10141000030018B12046FFF7E5FF05E0204600F085
:10142000ADF8204600F0ABF8002020762068006977
:10143000C0F38000D8B12068C068C0F38000B0B1AC
:101440006FF004002168086102202076206880691E
:1014500000F4407018B12046FFF7C4FF05E02046B5
:1014600000F08CF8204600F08AF8002020762068F2
:101470000069C0F3C000D8B12068C068C0F3C000E4
:10148000B0B16FF008002168086104202076206860
:10149000C06900F0030018B12046FFF7A3FF05E084
:1014A000204600F06BF8204600F069F80020207616
:1014B00020680069C0F30010D8B12068C068C0F38C
:1014C0000010B0B16FF0100021680861082020768C
:1014D0002068C06900F4407018B12046FFF782FF11
:1014E00005E0204600F04AF8204600F048F80020C9
:1014F00020762068006900F0010058B12068C068BB
:1015000000F0010030B16FF0010021680861204651
:1015100000F036F820680069C0F3C01058B12068A8
:10152000C068C0F3C01030B16FF08000216808615E
:101530002046FFF755FF20680069C0F3801058B1BE
:101540002068C068C0F3801030B16FF0400021689F
:101550000861204600F024F820680069C0F34010BC
:1015600058B12068C068C0F3401030B16FF020005F
:10157000216808612046FFF734FF10BD70477047AF
:101580000549884207D10549096809B9012100E0E8
:101590000021024A1160704724010020A8824242C3
:1015A0007047704701460022002391F8392091F8D6
:1015B0003A3042EA030070472DE9F04704462068BC
:1015C00005682068C668206847694FF00008C14672
:1015D00005F00F08B8F1000F0AD105F0200038B16E
:1015E00006F0200020B1204600F0FCFBBDE8F087AB
:1015F000B8F1000F6DD007F0010018B906F4907033
:10160000002866D005F0010030B106F4807018B1F2
:10161000E06B40F00100E06305F0040030B107F03A
:10162000010018B1E06B40F00200E06305F0020039
:1016300030B107F0010018B1E06B40F00400E06346
:1016400005F0080030B107F0010018B1E06B40F080
:101650000800E063E06B68B305F0200028B106F0F5
:10166000200010B1204600F0BDFB20684069C0F3A7
:101670008019E06B00F0080010B9B9F1000F22D01A
:10168000204600F08FFB2068406900F04000B0B1B8
:101690002068406920F0400021684861606B50B1CB
:1016A0001748616B0865606BFEF741FF10B1606B16
:1016B000016D88470CE02046FFF773FF08E02046E5
:1016C000FFF76FFF04E02046FFF76BFF0020E063A9
:1016D0008CE705F0800030B106F0800018B120469C
:1016E00000F082FD82E705F0400030B106F04000D6
:1016F00018B1204600F066FB78E700BF76E70000EF
:10170000911D000810B504460CB9012010BDA06958
:1017100000B100E000BF94F8390028B9002084F837
:101720003800204600F028F8242084F8390020688A
:10173000C06820F400502168C860204600F0A0FB7B
:101740002068006920F490402168086120684069A1
:1017500020F02A00216848612068C06840F40050E9
:101760002168C8600020E063202084F8390084F8F4
:101770003A000020CAE7000010B586B004462249AE
:10178000206888423ED100BF002000901F480068BA
:1017900040F001001D4908600846006800F00100A3
:1017A000009000BF00BF00BF002000901748143019
:1017B000006840F0100015491431086008460068C0
:1017C00000F01000009000BF00BF481501900220FB
:1017D000029001200390022004900720059001A9A7
:1017E0000B48FEF7B9FE4FF48060019001A908484C
:1017F000FEF7B2FE2520FFF714F80322114625203C
:10180000FFF71CF806B010BD001001403038024050
:101810000000024010B5034693F83A00202829D171
:1018200001B10AB9012010BD00BF93F838000128AA
:1018300001D10220F7E7012083F8380000BF996248
:101840009A85DA850020D863222083F83A0000BF09
:10185000002083F8380000BF1868406940F001009C
:101860001C6860611868C06840F490701C68E06093
:101870000020D8E70220D6E71D4A0168914236D100
:101880001C49098801F4004189BB1A49098801F4FF
:10189000804171B1184909780A2903D00021154AFD
:1018A000118024E01349098841F40041114A118054
:1018B0001DE0114909780D2906D10E49098841F426
:1018C00080410C4A118012E00B490978094A1288BC
:1018D000C2F30D02094B995406490988491C054A6F
:1018E000118011460988C72901DD00211180704748
:1018F000001001400C0000200E0000201C00002001
:10190000704700BFFEE7000000B587B000BF0020B1
:1019100001901B48006840F0010019490860084622
:10192000006800F00100019000BF00BF00BF002070
:1019300001900846006840F0100008600846006802
:1019400000F01000019000BF00BF012002900020B5
:101950000390022004900320059002A90948FEF795
:10196000FBFD18200290002003900120049003202A
:10197000059002A90448FEF7EFFD07B000BD000086
:1019800030380240000002400010024010B504460A
:10199000012C01D1234908702248007858B3102146
:1019A0002148FEF7D9FE50B108211F48FEF7D4FEAA
:1019B00028B101211D48FEF7CFFE01281BD10A20C6
:1019C00000F03CFE00201749087010211648FEF771
:1019D000C3FE08B9012010BD08211348FEF7BCFE64
:1019E00008B90220F7E701211048FEF7B5FE0128EB
:1019F00015D10420EFE710210B48FEF7ADFE0128BA
:101A00000DD108210848FEF7A7FE012807D10121C2
:101A10000648FEF7A1FE10B9012002490870002017
:101A2000D9E7000019000020001002400000024029
:101A300000B587B000BF002001901248006840F058
:101A40002000104908600846006800F0200001905E
:101A500000BF00BF4FF4C0600290012003900490CB
:101A60000320059002A90848FEF776FD01225102E5
:101A70000548FEF779FE012291020348FEF774FE45
:101A800007B000BD303802400014024000BFFEE73E
:101A90007047000002480068C0F302207047000051
:101AA0000CED00E010B5002807DA0A07140E054A0D
:101AB00000F00F031B1FD45403E00A07130E024A61
:101AC000135410BD18ED00E000E400E07047000082
:101AD00010B51348134908604FF482704860002124
:101AE00010488160C1600221016101214161490208
:101AF00081613821C1610021016241628162072157
:101B0000C162FFF74FFA07480068006840F04000E4
:101B1000044909680860FF2000F006F810BD0000C5
:101B2000003001406001002001B582B04FF47A70AE
:101B3000012301AA02A900900248FFF7BDFA9DF80F
:101B400004000EBD6001002010490968096821F0F9
:101B500040010E4A126811600C49096809684FF685
:101B6000C7721140094A126811600849096809687A
:101B70000143064A1268116004490968096841F086
:101B80004001024A126811607047000060010020A5
:101B9000F8B504460D4616462B4600228021204605
:101BA000009600F009F828B1606D40F020006065F3
:101BB0000320F8BD0020FCE72DE9F04104460E4665
:101BC00017461D46DDF818803FE0681CE0B32DB1D4
:101BD000FEF7D0FDA0EB0800A84236D3206840688D
:101BE00020F0E000216848606068B0F5827F0DD188
:101BF000A068B0F5004F03D0A068B0F5806F05D1A4
:101C00002068006820F0400021680860A06AB0F5F4
:101C1000005F0ED100BF206800684DF6FF710840DC
:101C2000216808602068006840F40050216808605E
:101C300000BF012084F8510000BF002084F850004C
:101C400000BF0320BDE8F081FFE7206880683040D6
:101C5000B04201D1012000E00020B842B5D10020FF
:101C6000F0E770472DE9F04192B0044688461546EA
:101C70001E46002700BF002000902448006840F066
:101C80008050224908600846006800F080500090AB
:101C900000BF00BF00BF002000901D48006840F456
:101CA00080401B4908600846006800F480400090AE
:101CB00000BF00BF012006900004079002200C9096
:101CC00041050D91CDF838800F941095119606A816
:101CD000FEF744FF07460FB100BFFEE70F2001905B
:101CE00002200290002003904FF4A05004904FF483
:101CF00080500590052101A8FEF7F2FD07460FB1BF
:101D000000BFFEE712B0BDE8F0810000403802409D
:101D10000070004010B5FEF733FD10BD1448006898
:101D200040F47000124908601248006840F0010059
:101D30001049086000200F49083108600D4800680C
:101D40000D4908400B4908600C48091D0860081F30
:101D5000006820F48020091F0860002005490C312C
:101D600008604FF000600249803908607047000049
:101D700088ED00E000380240FFFFF6FE103000243E
:101D800010B50248FFF72FFB10BD00002401002012
:101D900070B50546AC6B0020E085E0842046FFF777
:101DA00000FC70BD0168C96821F490710268D160BF
:101DB0000168496921F0010102685161202180F820
:101DC0003A10704710B504462068C06820F0400003
:101DD0002168C860202084F839002046FFF790FD74
:101DE000002010BD70B5044694F83A00222844D172
:101DF000A068B0F5805F13D1A56A206940B920685A
:101E00004068C0F308002880A06A801CA06219E026
:101E100020684068C0B22880A06A401CA06211E01F
:101E2000206938B920684068C1B2A26A501CA0621B
:101E3000117007E02068406800F07F01A26A501C22
:101E4000A0621170E08D401E80B2E08598B92068D4
:101E5000C06820F490702168C8602068406920F054
:101E6000010021684861202084F83A002046FFF7ED
:101E700003FD002070BD0020FCE70220FAE700000F
:101E80002DE9F041044600252068056925F44055F8
:101E9000E0680543206805612068C56849F20C6068
:101EA00085432169A068084361690843E1690843E3
:101EB00005432068C5602068456925F44075A06920
:101EC000054320684561E069B0F5004F7ED1C44903
:101ED0002068884203D0C349206888425DD1FEF75C
:101EE000D5FD00EBC00101EB001061684900B0FBBB
:101EF000F1F06421B0FBF1F00601FEF7C7FD00EB45
:101F0000C00101EB001061684900B0FBF1F7FEF77A
:101F1000BDFD00EBC00101EB001061684900B0FBA2
:101F2000F1F06421B0FBF1F000EBC00101EB001017
:101F3000A7EB8000322101EBC0006421B0FBF1F07F
:101F400000F0F80006EB4006FEF7A0FD00EBC00134
:101F500001EB001061684900B0FBF1F7FEF796FD58
:101F600000EBC00101EB001061684900B0FBF1F02B
:101F70006421B0FBF1F000EBC00101EB0010A7EB16
:101F80008000322101EBC0006421B0FBF1F000F0D1
:101F9000070030442168886020E1FEF767FD00EB10
:101FA000C00101EB001061684900B0FBF1F0642151
:101FB000B0FBF1F00601FEF759FD00EBC00101EBAB
:101FC000001061684900B0FBF1F700E045E0FEF762
:101FD0004DFD00EBC00101EB001061684900B0FB52
:101FE000F1F06421B0FBF1F000EBC00101EB001057
:101FF000A7EB8000322101EBC0006421B0FBF1F0BF
:1020000000F0F80006EB4006FEF730FD00EBC001E3
:1020100001EB001061684900B0FBF1F7FEF726FD07
:1020200000EBC00101EB001061684900B0FBF1F06A
:102030006421B0FBF1F000EBC00101EB0010A7EB55
:102040008000322101EBC0006421B0FBF1F000F010
:102050000700304421688860C0E0614920688842F8
:1020600003D06049206888425CD1FEF70FFD00EB89
:10207000C00101EB001061688900B0FBF1F6FEF7CA
:1020800005FD00EBC00101EB001061688900B0FBA9
:10209000F1F06421B0FBF1F000EBC00101EB0010A6
:1020A000A6EB8000322101EB00106421B0FBF1F0BF
:1020B00000F0F006FEF7EAFC00EBC00101EB0010B7
:1020C00061688900B0FBF1F06421B0FBF1F006EB30
:1020D0000016FEF7DBFC00EBC00101EB00106168AD
:1020E0008900B0FBF1F7FEF7D1FC00EBC00101EB7A
:1020F000001061688900B0FBF1F06421B0FBF1F0E1
:1021000000EBC00101EB0010A7EB8000322101EBD6
:1021100000106421B0FBF1F000F00F0030442168A2
:1021200088605BE0FEF7A2FC00EBC00101EB001051
:1021300061688900B0FBF1F6FEF798FC00EBC00186
:1021400001EB001061688900B0FBF1F06421B0FB85
:10215000F1F000EBC00101EB0010A6EB8000322192
:1021600001EB00106421B0FBF1F000F0F006FEF787
:102170007DFC00EBC00101EB001061688900B0FB41
:10218000F1F06421B0FBF1F006EB0016FEF76EFCF7
:1021900000EBC00101EB001061688900B0FBF1F7B2
:1021A000FEF764FC00EBC00101EB001061688900E0
:1021B000B0FBF1F06421B0FBF1F000EBC00101EBEA
:1021C0000010A7EB8000322101EB00106421B0FB6E
:1021D000F1F000F00F00304421688860BDE8F08124
:1021E0000010014000140140014691F839002128F7
:1021F0002CD18868B0F5805F0FD10A6A1088C0F3CF
:1022000008000B685860086918B9086A801C0862E1
:1022100009E0086A401C086205E00B6A581C086265
:1022200018780B685860C88C401E80B2C88458B9B2
:102230000868C06820F080000B68D8600868C06833
:1022400040F040000B68D860002070470220FCE797
:1022500010B500240C48FFF7AFF900BF01E0641C83
:1022600000BF0948FFF79EF92028F8D100BF0024DD
:1022700001E0641C00BF012204490348FFF7CAFAC9
:102280000028F6D100BF10BDE40000200E000020A1
:1022900000BFFEE710B50446240300F059F900F032
:1022A000F1F800200F4908602020FFF73DFC0E48A0
:1022B00000884EF61871884202D1200EFFF734FCD8
:1022C000C4F30740FFF730FCC4F30720FFF72CFCF2
:1022D000E0B2FFF729FC01200249086000F0D2F8C3
:1022E00010BD0000B88240421A00002010B586B030
:1022F00000BF002000901F48006840F002001D4908
:1023000008600846006800F00200009000BF00BFAF
:102310004FF480400190012002900390022004902D
:1023200001A91548FEF718F9012014490860FFF7C4
:10233000CFFB0020FFF708FC00F058F81049088098
:10234000084600884EF61871884210D1032000F02C
:1023500071F8044604F0010048B9002007490860FC
:10236000B720FFF7E1FB01200649C1F8B80206B02B
:1023700010BD00003038024000040240B8824042E4
:102380001A000020008040422DE9F04106460C462C
:1023900017460020134908600320FFF7C5FB1248C9
:1023A00000884EF61871884202D1200EFFF7BCFB60
:1023B000C4F30740FFF7B8FBC4F30720FFF7B4FBF3
:1023C000E0B2FFF7B1FB002505E0FF20FFF7ACFB13
:1023D0007055681C85B2BD42F7DB012001490860D9
:1023E000BDE8F081B88240421A00002010B50024F8
:1023F00000200E4908609020FFF796FB0020FFF7B1
:1024000093FB0020FFF790FB0020FFF78DFBFF20E0
:10241000FFF78AFB44EA0024FF20FFF785FB044313
:1024200001200349C1F8B802204610BDB8824042DD
:102430000080404270B5044600250026012C04D0DF
:10244000022C04D0032C06D103E0052605E0352636
:1024500003E0152601E0052600BF00BF0020074964
:1024600008603046FFF760FBFF20FFF75DFB054685
:1024700001200349C1F8B802284670BDB882404225
:102480000080404210B500BF0120FFF7D3FF00F0ED
:1024900001000028F8D110BD2DE9F05F81460F46FC
:1024A0001646DFF8A8B04FEA1738C7F30B0ACAF58B
:1024B0008054A64200DC344644E04FEA08314FF431
:1024C00080525846FFF760FF002508E00AEB050040
:1024D0001BF80000FF2800D003E0681C85B2A5426D
:1024E000F4DB00BFA54216DA4046FFF7D3FE002515
:1024F00007E019F8050005EB0A010BF80100681C5C
:1025000085B2A542F5DB4FEA08314FF480525846B8
:1025100000F02EF804E022463946484600F028F83C
:10252000A64200D10FE008F101084FF0000AA144D3
:102530002744301B86B2B6F5805F02DD4FF480542D
:1025400000E03446B9E700BFBDE8F09FB8010020C5
:1025500010B50020044908600620FFF7E5FA0120C5
:102560000249C1F8B80210BDB88240420080404222
:102570002DE9F04107460E461446F0B2C0F58075CD
:10258000AC4200DC254612E02A463146384600F0CF
:1025900013F8AC4200D10BE02F442E44601B84B2F0
:1025A000B4F5807F02DD4FF4807500E02546EBE74F
:1025B00000BFBDE8F08100002DE9F04106460C4661
:1025C0001746FFF7C5FF0020144908600220FFF7F7
:1025D000ABFA134800884EF61871884202D1200EDB
:1025E000FFF7A2FAC4F30740FFF79EFAC4F30720EF
:1025F000FFF79AFAE0B2FFF797FA002504E0705D62
:10260000FFF792FA681C85B2BD42F8DB012003494E
:102610000860FFF737FFBDE8F0810000B882404254
:102620001A00002000BF704710B504460420FEF7D2
:10263000A9FE0148046010BD0400002030B5044626
:10264000002504E04FF47A7000F004F86D1CA542F8
:10265000F8D330BD70B5034600224FF0E02675690F
:102660000D4E366803FB06F44FF0E026B16910E02A
:102670004FF0E026B06988420BD0884202D20E1A91
:10268000324402E02E1A0E4432440146A24200D3E4
:1026900000E0EDE700BF70BD0400002000BF054A68
:1026A000126802F04002002AF9D0C2B2014B5A600F
:1026B00070470000001001408AB000260025FEF798
:1026C0006BF80423022208214FF4A870FFF7CAFA1E
:1026D000A820FFF7A9FF4FF4E13000F09BF8FFF7C7
:1026E000A7F9FFF711F9FFF701FEFFF7F1F90EE087
:1026F0004FF47A70FFF7A2FF2BA0FDF731FE2F48B1
:10270000006808B9012000E000202C490860FFF7AC
:102710006DFE4EF614718842EAD129A0FDF720FE25
:102720004FF400143FE00020FFF730F90646012E79
:102730000BD128A0FDF714FEA4F1640121222A4840
:10274000FFF7AAFE29A0FDF70BFE022E19D12BA040
:10275000FDF706FEA4F16401212201A8FFF714FE93
:10276000002509E01420FFF769FF01A8415D28A0BA
:10277000FDF7F6FD681CC5B2202DF3D919A0FDF7B1
:10278000EFFD781CC7B20A20FFF758FF142F0AD1BB
:102790000A48001D006808B9012000E00020074930
:1027A000091D08600027BEE7BCECB2E2B2BBB5BDB4
:1027B0005732355131360D0A00000000A4824242E2
:1027C000BCECB2E2573235513136B3C9B9A60D0A65
:1027D00000000000D0B4C8EB573235513136CAFD85
:1027E000BEDDA3A10D0A000056280008D0B4C8EB36
:1027F000CDEAB1CFA3A1A3A10D0A0000B6C1C8A123
:10280000573235513136CAFDBEDDA3A10D0A000095
:102810002563000010B5044609480A4908600846C7
:10282000446000218160C160016181610C214161CE
:10283000FEF768FF012204490248FEF7EBFF10BDD6
:1028400000100140E40000200E0000204FF0407016
:10285000E1EE100A70474D65636861696E656C5FF3
:1028600041524D20466C61736820616E6420535064
:102870004920546578740000000000000000000149
:102880000203040607080900000000010203040017
:10289000B0280008000000201C000000C40100084F
:1028A000CC2800081C000020FC170000E0010008F4
:1028B0000024F40000000000000000000000000000
:0C28C0000000000010000000010118EFF3
:040000050800018965
:00000001FF
