:020000040800F2
:10000000B034002049020008AD3600083934000839
:10001000113600080B1400081D4300080000000002
:10002000000000000000000000000000D3380008BD
:100030000115000800000000E936000885390008B5
:1000400063020008630200086302000863020008FC
:1000500063020008630200086302000863020008EC
:1000600063020008630200086302000863020008DC
:1000700063020008630200086302000863020008CC
:1000800063020008630200086302000863020008BC
:1000900063020008630200086302000863020008AC
:1000A00063020008013A0008F13900086302000801
:1000B000113A0008213A00086302000863020008B0
:1000C000630200086302000863020008630200087C
:1000D00063020008DD4200086302000863020008B2
:1000E000630200086302000863020008630200085C
:1000F000613A000863020008630200086302000816
:100100006302000863020008313A00086302000835
:100110006302000863020008413A0008513A0008EF
:10012000630200086302000863020008630200081B
:10013000630200086302000863020008630200080B
:1001400063020008630200086302000863020008FB
:1001500063020008630200086302000863020008EB
:1001600063020008630200086302000863020008DB
:100170006302000863020008630200080000000038
:10018000630200086302000800F002F800F04CF877
:100190000AA090E8000C82448344AAF10107DA45E2
:1001A00001D100F041F8AFF2090EBAE80F0013F0E8
:1001B000010F18BFFB1A43F001031847B85D000098
:1001C000D85D0000103A24BF78C878C1FAD8520729
:1001D00024BF30C830C144BF04680C6070470000C1
:1001E0000023002400250026103A28BF78C1FBD840
:1001F000520728BF30C148BF0B607047662905F021
:100200002486642900F0F880002070471FB505F0AF
:1002100012FE00F0B5FB04000020002105F09AF862
:10022000E0601FBD10B510BD00F0C6FC1146FFF721
:10023000EDFF04F0A7FF00F0E4FC03B4FFF7F2FFCA
:1002400003BC04F055FF00000948804709480047F7
:10025000FEE7FEE7FEE7FEE7FEE7FEE7FEE7FEE776
:10026000FEE7FEE704480549054A064B70470000D3
:100270008D39000889010008B02E0020B03400201C
:10028000B0300020B0300020704753EA020C00F07C
:1002900069802DE9F04B4FF00006002B1FBFB3FA29
:1002A00083F503FA05F424FA05F65E4012BF1643FF
:1002B000B2FA82F502FA05F4C5F120051EBF22FA52
:1002C00005FC44EA0C04203556EA044C4FEA144479
:1002D00018BF641C4FF000084FF00009904271EB0A
:1002E000030C39D3002919BFB1FA81F701FA07F6D7
:1002F000B0FA80F700FA07F6C7F120071EBF20FA10
:1003000007FC46EA0C062037B6FBF4FCA7EB050712
:10031000103F07F01F0BCBF120060CFA0BFB2CFA59
:1003200006F644BFB3460026202FA4BF5E464FF01A
:10033000000B5BEA060C08BF4FF0010B19EB0B0931
:10034000ABFB027C48EB0608C01B06FB02CC0BFB98
:1003500003CC71EB0C01C1E70B460246414648460F
:10036000BDE8F08B13B54FF000004FF00001AFF384
:100370000080BDE81C4070470FB4044910B503AAC3
:10038000029800F0EBFA10BC5DF814FB1800002096
:100390002DE9F0410E460446002020622046E16827
:1003A000884730B3252805D0D4E901219047206A39
:1003B000401CF2E7E168204600278847050018D076
:1003C000A5F14100192802D820354FF400673246C4
:1003D000294620462760FFF711FF40B1012804D0CD
:1003E000F61D26F007060836D8E7361DD6E728465C
:1003F000DAE7206ABDE8F0812DE9F04106460024E5
:1004000010687529314616A510D0AFF3008000287A
:1004100002DA404213A507E031688A0701D512A528
:1004200002E0490704D511A5012401E0AFF30080E3
:1004300000210A2206F1240709E0B0FBF2FCB0FB20
:10044000F2F302FB1C00303078541846491C002897
:10045000F3D123462A463046BDE8F04100F017B8F4
:10046000000000002D0000002B0000002000000014
:10047000704770477047704710B500F085FA006804
:1004800010BD10B5044600F07FFA046010BD2DE9E0
:10049000F0470D4699469246044600F1240801684B
:1004A000880604D5E06921F01001216000E00120F8
:1004B000A84201DD471B00E00027A1697A1902EB81
:1004C0000900081AA0612078C00602D42046AFF3C4
:1004D0000080002608E0D4E901211AF806009047C0
:1004E000206A401C761C20624E45F4DB2078C00652
:1004F0000AD52046AFF3008006E0D4E90121302080
:100500009047206A401C2062381EA7F10107F4DCE6
:1005100007E0D4E9012118F805009047206A401C43
:100520002062281EA5F10105F3DC2046AFF3008010
:100530002078000602D50220BDE8F0870120FBE705
:1005400070472DE9FF4F0C461E464FF0FF378BB02A
:10055000D2E90001DDF860800A908A46C1F30A55AD
:1005600005B93D46002108464FF00000BAF1000FE2
:1005700000F4400005DA00EB80004FF4400101EA8E
:1005800050004FEA9059B9F1010F00DDB9460A98C1
:1005900050EA4A000ED044F61050A5F2FF3545430C
:1005A0002F14B8F1000F1ED07542291E1EDDC9F1AF
:1005B00000021CE0B8F1010F4FF0000001D0302123
:1005C00003E0F24305E02154401CB042FBDB30461F
:1005D0000022002121540B99C1F80880C1E90020B4
:1005E0000FB0BDE8F08FBD1B6D1CDEE74A4600DA98
:1005F000694206A800F06AFA06AB93E8070003AB6D
:1006000083E8070050460A9900F044FB8DE8070094
:10061000A0F500501F3800900398002D09DD42F22C
:100620001F014A46084403A90390684600F0A3FD51
:1006300008E0A0F500504A461F3803A90390684619
:1006400000F0ADFD8DE807000004000C03D04FF072
:10065000FF30410800E01046B8F1000F03D000223F
:10066000009215461EE0751E05D400F091F9303257
:1006700062556D1EF9D5B3460122084302D000220F
:100680007F1C04E02078302801D100227F1E002A40
:10069000099786D01DE0112D07DA00F079F9303284
:1006A00062556D1C50EA0102F5D1084302D0009852
:1006B000C8B10EE00021681E05E0235C625C635453
:1006C0002254401E491C8142F7DBAB46A81B401E4A
:1006D0000990002004F80B000B98099AC0F80880D4
:1006E000C0E9002B7CE711264FF0000859E72DE9FF
:1006F000F04F88460446D21D22F0070191B0D1E99F
:100700000001CDE90A0104F085FA02460B98C00FFA
:1007100001D02D2007E02068810701D52B2002E0C1
:10072000202101EAC000032A099001D0072A05DB35
:1007300003464146204600F089F90BE12078800607
:1007400001D5E06900E00620B8F1650F814606D0CA
:10075000B8F1660F18D0B8F1670F70D131E0002002
:10076000B9F1110F009001DB112301E009F1010340
:100770000AAA01A90CA8FFF7E4FEDDE90C70002627
:1007800009F10105834647E001204B4600904FF0F8
:1007900000470AAA01A90CA8FFF7D3FEDDE90DB0B6
:1007A0000C995D46002610B909F101000D18B9EB4E
:1007B000050003D4C0F1FF3609F10105A5EB0900DE
:1007C0002BE0B9F1010F01DA4FF001090020B9F176
:1007D000110F0090484601DD112300E003460AAAEC
:1007E00001A90CA8FFF7ADFEDDE90C704D4600260F
:1007F0008346207800070AD4AB4500DA5D4601A89D
:10080000012D04DD411911F8011C302907D04F4595
:1008100002DA17F1040F04DA012082460FE06D1EA0
:10082000EEE7002F02DCED1B3E4403E0781CA842FB
:1008300000DD7D1CB81B00F1010A4FF00047207855
:10084000000703D4AA4501DB4FF0FF3A0021B7F1BE
:10085000004F0DF143088DF8431024D002202B23C4
:10086000002F01DA7F422D230A21021EA0F1010090
:1008700000DC5FB197FBF1FC97FBF1F201FB1C7C04
:1008800017460CF1300C08F801CDEEE7A8F1010095
:1008900003702188090501D5452100E06521A0F1FB
:1008A000010800F8011C09980FA9A1EB0807FF1D1A
:1008B00000B10120411901EBEA70A1693844081A1E
:1008C000401EA0612078C00602D42046AFF300800D
:1008D000099828B1D4E901219047206A401C206280
:1008E0002078C00622D52046AFF300801EE0002EFF
:1008F00004DBB34502DD01A8805D00E03020D4E9CF
:1009000001219047206A401C2062761CAAF1010058
:100910005FEA000A0AD100F033F8C0680168405C61
:10092000D4E901219047206A401C2062281EA5F1CD
:100930000105DCDC07E0D4E9012118F8010B904740
:10094000206A401C2062381EA7F10107F3DC204614
:10095000AFF30080032011B043E60000074B70B5F1
:100960000D467B4400F05FF80446284600F01CF971
:1009700010B14FF0FF3070BD204670BD034800003D
:10098000004870476C2E0020004870474C2E002015
:1009900030B5B0F10A024FEA900E71F100034EEA51
:1009A000817EB0EB0E0061EB91014FEA101E4EEA22
:1009B000017E10EB0E0041EB11114FEA102E4EEAB2
:1009C000016E10EB0E0041EB11214FEA104E4EEA82
:1009D000014E10EB0E0041EB1141401841F10001B6
:1009E0004FEAD00040EA41704FEAD10110EB800598
:1009F0004FEA810444EA907444EB01046D1944EB1E
:100A00000404521BA3414FF0000348BF0A3200D533
:100A100030BD401C41F1000130BD000001694A1C9D
:100A200002610878704700B58FB0CDE9013100212F
:100A3000059105497944CDE9031011466846FFF751
:100A4000A7FC0FB000BD0000E5FFFFFF2DE9F0415E
:100A50001F46044603260168072A01F4006004DBF0
:100A600008B116A505E016A503E008B115A500E03C
:100A700015A521F010002060A069C01EA0610FB173
:100A8000401EA0612046AFF300804FB1D4E90121A0
:100A900038469047206A401C2062C01C206206E055
:100AA000206AFAE7D4E9012115F8010B9047761E78
:100AB000F8D22046AFF30080BDE8F0814E414E00F1
:100AC0006E616E00494E4600696E66002DE9F04782
:100AD000814616468AB0334878440DC88DE80D002B
:100AE00030487844801C03AC0DC884E80D0041F602
:100AF0009B300844372190FBF1F290FBF1F5A5F112
:100B0000800501FB12041B3C02D56442012000E079
:100B10000020DFF890A080460027FA44AAF1BE0A20
:100B20000DE0E00709D03246684607EB47010AEBC3
:100B3000810100F034FB8DE8070064107F1C002C5D
:100B4000EFD1184F7F44AC3F18E0E80714D007EB13
:100B500004100DF1180A90E80E008AE80E00C06833
:100B6000F04201D198190890324606A903A800F076
:100B700016FB03AB83E807006D10641C002DE4D165
:100B800032466946B8F1000F03A802D000F0F3FA2C
:100B900001E000F004FBC9E90001C9F808200AB02F
:100BA000BDE8F08780540000007B00F080007047B3
:100BB000004870474C2E00207546FFF7F9FFAE46FF
:100BC00005006946534620F00700854618B020B559
:100BD000FFF748FBBDE820404FF000064FF000074C
:100BE0004FF000084FF0000B21F00701AC46ACE8D5
:100BF000C009ACE8C009ACE8C009ACE8C0098D4642
:100C0000704710B50446AFF300802046BDE81040A1
:100C1000FFF713BB4FF0013C50F8042B51F8043B95
:100C20009A4221D1A2EB0C03934313EACC1317D1C0
:100C300050F8042B51F8043B9A4215D1A2EB0C0357
:100C4000934313EACC130BD150F8042B51F8043B17
:100C50009A4209D1A2EB0C03934313EACC13DBD0E5
:100C60004FF00000704700BFD01A01BAB1FA81F10D
:100C700001F0180122FA01F0CB40C1F12001DBB2F2
:100C8000C0B2C01A2CFA01F3D11A914311EAC31170
:100C9000E6D170475FEA400C08BF91F0000F4FEAC1
:100CA0008C234FEAC12243EA51514FEA1C5018BF2E
:100CB00000F5F0404FEA300018BF41F000415FEA14
:100CC0006C5C00F02980BCF1FF3F08BF40F0804021
:100CD0007047130C06BF12044FF0100C4FF0000CBD
:100CE000130E04BF12020CF1080C130F04BF120103
:100CF0000CF1040C930F04BF92000CF1020CD30F03
:100D000004BF52000CF1010C11464FF00002A0F19B
:100D10001F00A0EB0C00704711F0004F08BF704798
:100D200031F000413FF4D5AF0B0C06BF09044FF082
:100D3000100C4FF0000C0B0E04BF09020CF1080C54
:100D40000B0F04BF09010CF1040C8B0F04BF8900C9
:100D50000CF1020CCB0F04BF49000CF1010CCCF1DB
:100D60002003A0EB0C0022FA03F302FA0CF241EA92
:100D7000030100F10100704720F07F4C80EA03007E
:100D800023F07F47ACEB070303F57C5300F00040F2
:100D900003F1FF032DE980494FEA154B09B44FEAEF
:100DA000144325EA0B4E24EA03480FF2042606EB0F
:100DB000132749083E785FEA320203FB0667C7F54E
:100DC000000707FB06F64FEA54374FEAD64606F10E
:100DD000020607FB066CCCF1005C4FEA1C472CEACC
:100DE000074C07FB06F40CFB06F504EB15464FEA2F
:100DF000961634BF00204FF000404FEAD13706FB73
:100E000007FC4FEA1C4C0CFB0BF7D21B03FB0CF747
:100E100061EB07010CFB0EF7B0EB074072EB1742DA
:100E20000CFB08F734BFA2EB0742B2EB074261EBC1
:100E300017414FEA0C444FEA910706FB07FC4FEAC3
:100E40001C4C0CFB0BF7B0EBC74072EB573203FBAB
:100E50000CF734BFA2EBC742B2EBC74261EB57318C
:100E60000CFB0EF7B0EBC70072EB57720CFB08F7E8
:100E700034BFA2EBC702B2EBC70261EB5771039F0D
:100E80004FEA816141EA921104EBCC044FEAD13779
:100E90004FEA826206FB07FC42EA90124FEA80604A
:100EA0004FEA1C4C0CFB0BF7D21B03FB0CF761EB5E
:100EB00007010CFB0EF7B0EB074072EB17420CFB7F
:100EC00008F734BFA2EB0742B2EB074261EB1741D0
:100ED0004FEA8C554FEA910704EB9C2406FB07FC74
:100EE0004FEA1C4C0CFB0BF7B0EBC74072EB5732D0
:100EF00003FB0CF734BFA2EBC742B2EBC74261EB76
:100F000057310CFB0EF7B0EBC70072EB57720CFBBE
:100F100008F734BFA2EBC702B2EBC70261EB57710F
:100F200015EB4C254FEA816141EA92114FEA82624A
:100F30004FEAD13742EA901206FB07FC44F1000465
:100F40004FEA80604FEA1C4C0CFB0BF7D21B03FBF3
:100F50000CF761EB07010CFB0EF7B0EB074072EBEF
:100F600017420CFB08F734BFA2EB0742B2EB074273
:100F700061EB174115EB1C154FEA813141EA9241B3
:100F80004FEA823242EA90424FEA80304FEA0C76D2
:100F900044F1000448EA03434EEA0B484FF0000EC8
:100FA000B2EB080C71EB030724BF624639464EEBE7
:100FB0000E0E4FF0000B0018524149414BEB0B0B4A
:100FC000B2EB080C71EB03077BF1000B24BF624608
:100FD00039464EEB0E0E4FF0000B001852414941BE
:100FE0004BEB0B0BB2EB080C71EB03077BF1000B27
:100FF00024BF624639464EEB0E0E51EA020718BF77
:1010000046F0010616EB0E7655F1000254F1000190
:1010100003D5BDE88901BDE80088BDE88901BDE8C8
:101020000048B619524141EB0101A3F10103704799
:1010300080807F7E7D7C7B7A797877767675747315
:10104000727171706F6E6E6D6C6C6B6A6A696868D4
:10105000676666656464636362616160605F5F5E6A
:101060005E5D5D5C5C5B5B5A5A59595858575756E0
:101070005655555554545353525252515150505045
:101080004F4F4F4E4E4D4D4D4C4C4C4B4B4B4A4A97
:101090004A494949484848474747474646464545DB
:1010A0004544444444434343434242424241414114
:1010B000002B26D4770021D01CB54FEA370703B4A4
:1010C0004FF010004FF010014FF000000FBCBDE8D2
:1010D00010400BF1010BBBF1010F08BF5FEA1707CE
:1010E00022BF12F1010211F101014FF0004143F161
:1010F000000300F0004043EA00007047F9D35708AE
:10110000DAE746EA064613F1400F4FEA16461FDDBE
:1011100013F1200FDFBF16430A46002120335B4244
:10112000C8D0C3F1200746EA064602FA07F74FEA9D
:10113000164646EA0706C3F1200722FA03F201FA2F
:1011400007F721FA03F14FF0000342EA0702B1E783
:1011500046EA020646EA06464FEA164646EA01060F
:10116000BCBF46EA0646360C4FF000034FF00002C3
:101170004FF000019EE72DE9C048934630B491E856
:10118000380007C831EA400C48BF34EA430C03D5A5
:10119000FFF7F2FDFFF78CFFF0BCBDE800882DE9FA
:1011A000C048934630B491E8380007C810F0804F2B
:1011B00008BF13F0804F03D100F005F8FFF778FF68
:1011C000F0BCBDE8008820F07F4780EA030023F0F0
:1011D0007F4C07EB0C03A3F57C5300F00040A3F118
:1011E000FE0392F0000F00F0B38095F0000F00F0C6
:1011F00077802DE901494FEA11404FEA144621EA70
:10120000004800FB06FC24EA064708FB06F607FB3D
:1012100008F800FB07F718EB06484CEB164C4FEAB2
:10122000124B18EB07484FEA15464CEB174022EAE1
:101230000B4E0BFB06FC25EA06470EFB06F607FBEA
:101240000EFE0BFB07F71EEB064E4CEB164C4FF059
:1012500000061EEB074E4CEB174B18EB0B0840F14A
:10126000000018EB0E0B58EB000840F100008F1A3D
:101270004FF000013CBFC943661B14BFB5EB040C23
:1012800000213CBFC943F61B4FEA17444EEA8E0EBD
:1012900027EA04454FEA1C4704FB07622CEA074C87
:1012A00005FB07F70CFB05F604FB0CFC16EB0746E9
:1012B00042EB174216EB0C4642EB1C421BEB0606B8
:1012C00058EB0202414146EA9E0601D5BDE801897C
:1012D000B619524141EB0101A3F10103BDE80189B7
:1012E0004FEA14454FEA114724EA054621EA074C24
:1012F00005FB07F406FB07F70CFB06F105FB0CFCEE
:1013000011EB074144EB17444FEA124711EB0C4134
:1013100044EB1C4422EA074C05FB07F206FB07F7E7
:101320000CFB06F605FB0CFC16EB074642EB1742DE
:1013300016EB0C4642EB1C456A1854F1000148BFFD
:101340007047B619524141EB0101A3F10103704707
:1013500095F0000F37D04FEA11424FEA144721EAC7
:10136000024624EA074C02FB07F106FB07F70CFBD9
:1013700006F402FB0CFC14EB074441EB17414FEA67
:10138000154714EB0C4441EB1C4125EA074C02FBCA
:1013900007F506FB07F70CFB06F602FB0CFC16EB49
:1013A000074645EB174516EB0C4645EB1C42121958
:1013B00051F1000148BF7047B619524141EB01019C
:1013C000A3F1010370474FEA14454FEA114724EA9D
:1013D000054621EA074C05FB07F106FB07F70CFB66
:1013E00006F24FF0000605FB0CFC12EB074241EB46
:1013F000174112EB0C4251EB1C4148BF7047921849
:1014000041EB0101A3F10103704700BFFEE70000BB
:1014100070B52DED108B05460E46B0EE408AF0EE0D
:10142000609AF0EE418AB0EE61EA002439EEE80AF3
:10143000B0EE40FA52E0B0EE000AC8EE000A00EE4C
:10144000104AB8EEC00A30EE600A20EE0E0AB0EE86
:10145000001AC8EE010AC0EE20EAB1EE6E0A10EEE4
:10146000100A04F077FC41EC1D0BB0EE4D0AF0EED3
:101470006D0A03F0E9FBB0EE40CAF0EE60CA9FEDE2
:101480001D0B53EC102B51EC1C0B03F0ABFF41EC8C
:101490001B0B53EC1B2B9FED170B51EC100B04F0A7
:1014A00055F841EC1A0B03F06BFF09EE100AB0EE91
:1014B000680A0FEE090A05EB840080ED000A05EBCF
:1014C000840090ED000ADFED0D0A80EE801ABCEE7C
:1014D000C10A10EE100A26F81400641C00EE104A2F
:1014E000B8EEC00AB4EEC80AF1EE10FAA3D3BDEC10
:1014F000108B70BD000000000000F03F0024744914
:101500007047014691F83500022803D080204865D5
:1015100001207047052081F835000868006820F038
:1015200001000A6810600020F3E70000F8B50246E9
:101530000B460025002400200021DCE0012606FAED
:1015400001F51E6806EA0504AC4273D15E68022EFE
:1015500002D05E68122E13D1CF0802F1200656F891
:1015600027004E07F70E0F26BE40B0434F07FF0E71
:101570001E69BE403043CF0802F1200646F827001E
:1015800010684F000326BE40B0431E7906F00306E4
:101590004F00BE40304310605E68012E08D05E6888
:1015A000022E05D05E68112E02D05E68122E13D175
:1015B00090684F000326BE40B0434F00DE68BE4037
:1015C00030439060506801268E40B0431E79C6F3C8
:1015D00000168E4030435060D0684F000326BE4056
:1015E000B0434F009E68BE403043D0605E6806F056
:1015F0008056B6F1805F7DD100BF00260096404E38
:10160000366846F480463E4F3E603E46366806F4F5
:101610008046009600BF00BF3A4E8F0856F827005C
:101620008E07370F0F26BE40B043374EB24202D16D
:10163000002624E05EE0354EB24201D101261EE0D4
:10164000334EB24201D1022619E0324EB24201D1EC
:10165000032614E0304EB24201D104260FE02F4E93
:10166000B24201D105260AE02D4EB24201D1062632
:1016700005E02C4EB24201D1072600E008268F0774
:101680003F0FBE4030431F4E8F0846F82700264EBE
:101690003068A0435E6806F48036B6F5803F00D11E
:1016A0002043214E3060361D3068A0435E6806F44A
:1016B0000036B6F5003F00D120431B4E361D30608A
:1016C000361D3068A0435E6806F48016B6F5801FAC
:1016D00000D12043144E08363060361D3068A043D8
:1016E0005E6806F40016B6F5001F00D120430E4ECA
:1016F0000C363060491C1029FFF420AFF8BD000003
:101700004438024008380140000002400004024012
:1017100000080240000C0240001002400014024089
:1017200000180240001C0240003C014002461369C0
:101730000B400BB1012000E0002070470AB181612D
:1017400001E00B04836170470148006870470000A6
:101750002000002003480068034909780844014933
:1017600008607047200000202800002010B50D48B8
:10177000006840F400700B4908600846006840F4B7
:10178000806008600846006840F4807008600320AC
:1017900000F07CF80F2000F007F800F02BF8002094
:1017A00010BD0000003C024070B504460E480078B1
:1017B0004FF47A71B1FBF0F00C490968B1FBF0F518
:1017C000284600F0DDFD08B1012070BD102C07D2C5
:1017D00000222146501E00F01BF80548046001E07D
:1017E0000120F2E70020F0E7280000201000002090
:1017F00024000020704700BF00F01F02012191402B
:101800004209920002F1E022C2F8001100BF7047C5
:101810002DE9F05F80460D461646002701F048FF8F
:10182000074639462A46334601F00700C0F1070A49
:10183000BAF1040F02D94FF0040A01E0C0F1070A1F
:10184000D14600F1040ABAF1070F02D24FF0000AA4
:1018500001E0A0F1030AD4464FF0010A0AFA09FA9E
:10186000AAF1010A0AEA020A0AFA0CFA4FF0010B7D
:101870000BFA0CFBABF1010B0BEA030B4AEA0B046E
:101880002146404601F01CFFBDE8F09F00BF00F07C
:101890000702064B19684FF6FF031940044B0B4330
:1018A00043EA0221014B196000BF70470CED00E0D4
:1018B0000000FA0570B504460D460CB9012070BD54
:1018C0005848006800F00F00A84209D255490D7031
:1018D0000846006800F00F00A84201D00120EEE7A2
:1018E000207800F0020002281DD1207800F00400CA
:1018F000042805D14C48006840F4E0504A4908608B
:10190000207800F00800082805D14748006840F416
:101910006040454908604448006820F0F000A16834
:10192000084341490860207800F00100A8B36068CE
:10193000012807D13C4808380068C0F34040B8B9D6
:101940000120BCE76068022802D06068032807D144
:10195000354808380068C0F3406048B90120AEE758
:10196000314808380068C0F3400008B90120A6E7F4
:101970002D48006820F00300616808432A49086088
:10198000FFF7E2FE064609E0FFF7DEFE801B41F2AC
:101990008831884202D9032091E707E02248006895
:1019A00000F00C006168B0EB810FEDD11D480068BC
:1019B00000F00F00A84209D91A490D7008460068C6
:1019C00000F00F00A84201D0012078E7207800F055
:1019D0000400042807D11448006820F4E050E168AE
:1019E000084311490860207800F00800082808D151
:1019F0000D48006820F46040216940EAC1000A49AE
:101A0000086000F03DF808490968C1F30311074A6E
:101A1000515CC840064908600F20FFF7C5FE002052
:101A20004DE70000003C0240083802406F5E0008AD
:101A300010000020014800687047000010000020DE
:101A400000B5FFF7F7FF04490968C1F38221034A93
:101A5000515CC84000BD0000083802407F5E0008AD
:101A600000B5FFF7E7FF04490968C1F34231034AB3
:101A7000515CC84000BD0000083802407F5E00088D
:101A80002DE9F047002400250026A14625480068DE
:101A900000F00C0020B1042805D008283AD105E058
:101AA000DFF8849039E0DFF8849036E01D48001FAD
:101AB000006800F03F041B48001F006800F480002D
:101AC00078B11A481749091F0968C1F38811A0FBAA
:101AD00001700146224600233846FEF7D6FB054634
:101AE0000EE011480F49091F0968C1F38811A0FBD6
:101AF00001700146224600233846FEF7C6FB054624
:101B00000848001F0068C0F30140401C4600B5FBB8
:101B1000F6F902E0DFF8109000BF00BF4846BDE8CC
:101B2000F0870000083802400024F40000127A0018
:101B3000F8B504460CB90120F8BD207800F001008A
:101B4000002874D0F948006800F00C0004280DD07B
:101B5000F648006800F00C00082813D1F348001F75
:101B6000006800F48000B0F5800F0BD1EF48083812
:101B70000068C0F34040002859D06068002856D162
:101B80000120D9E700BF6068B0F5803F08D1E74881
:101B90000838006840F48030E449083908601EE0E5
:101BA0006068B0F5A02F0DD1E0480838006840F417
:101BB0008020DE49083908600846006840F480301B
:101BC00008600CE0D9480838006820F48030D74914
:101BD000083908600846006820F48020086000BFCB
:101BE000606890B1FFF7B0FD054606E0FFF7ACFD79
:101BF000401B642801D903209EE7CC4808380068C0
:101C0000C0F340400028F1D011E0FFF79DFD0546EC
:101C100006E0FFF799FD401B642801D903208BE7FC
:101C2000C24808380068C0F340400028F1D120784D
:101C300000F0020002285FD1BC48006800F00C00F0
:101C400058B1BA48006800F00C0008281CD1B74809
:101C5000001F006800F48000B0B9B448083800687C
:101C6000C0F3400020B1E068012801D0012063E703
:101C7000AE480838006820F0F800216940EAC10049
:101C8000AA490839086037E0E06800B30120A84994
:101C90000860FFF759FD054606E0FFF755FD401BBC
:101CA000022801D9032047E7A04808380068C0F39C
:101CB00040000028F1D09D480838006820F0F80066
:101CC000216940EAC10099490839086014E0002000
:101CD00097490860FFF738FD054606E0FFF734FD39
:101CE000401B022801D9032026E7904808380068E5
:101CF000C0F340000028F1D1207800F00800082847
:101D00002CD16069A8B101208A490860FFF71CFD49
:101D1000054606E0FFF718FD401B022801D9032005
:101D20000AE782486C300068C0F340000028F1D018
:101D300014E000207F490860FFF706FD054606E035
:101D4000FFF702FD401B022801D90320F4E6774883
:101D50006C300068C0F340000028F1D1207800F01A
:101D60000400042870D1002670483830006800F064
:101D7000805090B900BF002000906C483830006857
:101D800040F080506949383108600846006800F02A
:101D90008050009000BF00BF01266748006800F433
:101DA0008070B0B96448006840F48070624908608F
:101DB000FFF7CAFC054606E0FFF7C6FC401B0228F9
:101DC00001D90320B8E65C48006800F48070002860
:101DD000F2D000BFA068012808D1544868300068DC
:101DE00040F001005149683108601DE0A0680528F5
:101DF0000DD14E486830006840F004004B4968310E
:101E000008600846006840F0010008600CE04748A0
:101E10006830006820F001004449683108600846D5
:101E2000006820F00400086000BFA068A8B1FFF7B8
:101E30008BFC054609E0FFF787FC401B41F2883127
:101E4000884202D9032077E626E0384868300068E7
:101E5000C0F340000028EED013E0FFF775FC054604
:101E600008E0FFF771FC401B41F28831884201D93C
:101E7000032061E62D4868300068C0F34000002868
:101E8000EFD1012E07D129483830006820F080506A
:101E900026493831086000BFA069B8B323480068FC
:101EA00000F00C0008285ED0A069022846D100206E
:101EB0001F490866FFF748FC054606E0FFF744FCAB
:101EC000401B022801D9032036E61848083800686C
:101ED000C0F340600028F1D1D4E907010843616AEA
:101EE00040EA81110122A06AC2EB500041EA0041A0
:101EF0002C20005D41EA00600C49091F08600120A8
:101F00000B490866FFF720FC054607E02DE0FFF7C8
:101F10001BFC401B022801D903200DE603480838AA
:101F20000068C0F340600028F1D01EE0083802408D
:101F300000004742800E47420070004000200C49DC
:101F40000866FFF701FC054606E0FFF7FDFB401BB6
:101F5000022801D90320EFE506480068C0F340607D
:101F60000028F2D101E00120E6E50020E4E50000D0
:101F7000000047420038024010B504460CB9012069
:101F800010BD606A00B900BFA06AB0F5005F00D163
:101F900000BF94F8510028B9002084F85000204672
:101FA00000F03AF8022084F851002068006820F020
:101FB000400021680860D4E901010843E168084352
:101FC0002169084361690843218B01F400710843CA
:101FD000E1690843216A0843A16A0843216808604F
:101FE0000421A06901EA1040616A08432168486041
:101FF000A06AB0F5005F02D12168E06A086120683C
:10200000C06920F400602168C8610020606501207B
:1020100084F851000020B3E710B586B0044600BF35
:10202000002000901748006840F002001549086041
:102030000846006800F00200009000BF00BF00BF2B
:10204000002000900F481430006840F480500D4983
:10205000143108600846006800F48050009000BF0A
:1020600000BF38200190022002900120039002203E
:1020700004900520059001A90348FFF757FA06B020
:1020800010BD000030380240000402402DE9FF5F1F
:1020900004460D4616461F46DDF838804FF0000A0C
:1020A00000200390029081464FF0010B019000BF89
:1020B00094F85000012803D1022004B0BDE8F09F3D
:1020C000012084F8500000BFFFF73EFB814694F8E2
:1020D00051A060680390BAF1010F0BD00398B0F5DE
:1020E000827F04D1A06810B9BAF1040F02D0022097
:1020F000019027E10DB106B117B90120019021E14E
:1021000094F85100012802D1052084F851000020E4
:102110006065A663E787A7872563E786A7862064AF
:102120006064A06AB0F5005F0ED100BF206800684F
:102130004DF6FF710840216808602068006840F48F
:1021400000502168086000BF2068006800F040006F
:10215000402805D02068006840F0400021680860F1
:10216000E068B0F5006F4FD1606810B1E08E0128D3
:1021700006D128882168C860AD1CE08E401EE0862C
:102180003BE0BBF1000F1CD0E08ED0B1206880682E
:1021900000F00200022814D128882168C860AD1C14
:1021A000E08E401EE0864FF0000BE08E48B9A06A3A
:1021B000B0F5005F05D12068006840F480502168C8
:1021C0000860E08F68B12068806800F0010040B1CD
:1021D0002068C0683080B61CE08F401EE0874FF05A
:1021E000010B08F1010040B1FFF7AEFAA0EB0900C6
:1021F000404502D303200190A4E0E08E0028C0D126
:10220000E08F0028BDD14EE0606810B1E08E01285B
:1022100006D12878216808736D1CE08E401EE08688
:102220003BE0BBF1000F1CD0E08ED0B1206880688D
:1022300000F00200022814D115F8010B2168087380
:10224000E08E401EE0864FF0000BE08E48B9A06A99
:10225000B0F5005F05D12068006840F48050216827
:102260000860E08F68B12068806800F0010040B12C
:102270002068C06806F8010BE08F401EE0874FF031
:10228000010B08F1010040B1FFF75EFAA0EB090075
:10229000404502D30320019054E0E08E0028C0D1D5
:1022A000E08F0028BDD1A06AB0F5005F15D143468C
:1022B000012211462046CDF8009001F0B5FA30B168
:1022C000606D40F002006065032001903AE02068F4
:1022D000C06880B20290BDF808002068806800F0F5
:1022E0001000102809D1606D40F0020060654FF6C3
:1022F000EF7021688860012001904346012202218D
:102300002046CDF8009001F08FFA10B10320019023
:1023100018E04A464146204601F072FA20B10120F9
:102320000190202060650DE0A06850B900BF00203A
:1023300000902068C068009020688068009000BF0E
:1023400000BF00BF012084F8510000BF002084F8C6
:10235000500000BF0198B0E6042808D14FF0E021FA
:10236000096941F004014FF0E022116107E04FF0EC
:10237000E021096921F004014FF0E022116170476A
:1023800070B504462546681EB0F1807F01D3012058
:102390000FE0681E4FF0E02148610F214FF0FF3041
:1023A00001F08EF900204FF0E021886107200861DC
:1023B000002070BD70477047024600BF92F8380099
:1023C000012801D102207047012082F8380000BFA7
:1023D000022082F839001068406820F0700013680D
:1023E0005860106840680B6818431368586010689C
:1023F000806820F0800013689860106880684B68DF
:10240000184313689860012082F8390000BF00204B
:1024100082F8380000BF00BFD5E710B504460CB9FC
:10242000012010BD94F8390028B9002084F8380044
:10243000204600F00DF8022084F83900211D2068A4
:1024400001F016FB012084F839000020E9E70000C4
:1024500038B5044648492068884217D100BF00209B
:1024600000904648006840F0100044490860084663
:10247000006800F01000009000BF00BF01220021A2
:102480003620FFF7C5F93620FFF7B5F93C4920683B
:10249000884217D100BF002000903848006840F003
:1024A0002000364908600846006800F020000090CF
:1024B00000BF00BF022200213720FFF7A9F9372013
:1024C000FFF799F92F492068884219D100BF0020F1
:1024D00000902A48001D006840F400302749091D7B
:1024E00008600846006800F40030009000BF00BF9C
:1024F000012200211920FFF78BF91920FFF77BF942
:1025000021492068884219D100BF002000901B4853
:10251000001D006840F480201849091D0860084625
:10252000006800F48020009000BF00BF022200215C
:102530001A20FFF76DF91A20FFF75DF9134920689B
:10254000884217D100BF002000900C48006840F07E
:1025500080000A4908600846006800F0800000908A
:1025600000BF00BF032200212C20FFF751F92C20CF
:10257000FFF741F938BD000000100040403802402C
:10258000001400400044014000480140001C00408D
:1025900001460868C06840F001000A68D060086819
:1025A000006840F001000A68106000207047014692
:1025B0000868C06820F001000A68D06000BF0868A1
:1025C000006A41F21112104050B90868006A921076
:1025D000104028B90868006820F001000A681060FF
:1025E00000BF002070472DE9F04104460D4600264B
:1025F00000BF94F83800012802D10220BDE8F08124
:10260000012084F8380000BF022084F839002068D7
:10261000866826F0770626F47F462068866028685C
:1026200050283BD00CDC202860D004DC002853D09C
:10263000102865D155E030285DD0402860D141E0B8
:10264000602835D070280DD0B0F5805F03D0B0F58C
:10265000005F55D115E02068806820F007002168F0
:1026600088604EE0D5E902136A68206801F080FABC
:102670002068866826F0770646F077062068866030
:102680003FE0D5E902136A68206801F071FA20681A
:10269000806840F480402168886032E0EA686968B8
:1026A000206801F05BFB5021206801F06DFA28E002
:1026B000EA686968206801F066FB6021206801F023
:1026C00063FA1EE0EA686968206801F047FB402170
:1026D000206801F059FA14E00021206801F054FA52
:1026E0000FE01021206801F04FFA0AE02021206855
:1026F00001F04AFA05E03021206801F045FA00E0D7
:1027000000BF00BF012084F8390000BF002084F81A
:10271000380000BF00BF71E7704710B5044620685D
:102720000069C0F34000D8B12068C068C0F3400021
:10273000B0B16FF0020021680861012020762068A6
:10274000806900F0030018B12046FFF7E5FF05E0BF
:10275000204600F0A3F9204600F040FA0020207641
:1027600020680069C0F38000D8B12068C068C0F359
:102770008000B0B16FF0040021680861022020766B
:102780002068806900F4407018B12046FFF7C4FF4C
:1027900005E0204600F082F9204600F01FFA0020F4
:1027A000207620680069C0F3C000D8B12068C068F6
:1027B000C0F3C000B0B16FF00800216808610420C8
:1027C00020762068C06900F0030018B12046FFF7AA
:1027D000A3FF05E0204600F061F9204600F0FEF975
:1027E0000020207620680069C0F30010D8B120686E
:1027F000C068C0F30010B0B16FF01000216808612C
:10280000082020762068C06900F4407018B1204686
:10281000FFF782FF05E0204600F040F9204600F077
:10282000DDF9002020762068006900F0010058B131
:102830002068C06800F0010030B16FF0010021682D
:102840000861204600F036FA20680069C0F3C01025
:1028500058B12068C068C0F3C01030B16FF080007C
:10286000216808612046FFF7A5FD20680069C0F3D4
:10287000801058B12068C068C0F3801030B16FF08C
:10288000400021680861204600F0A6FB206800692E
:10289000C0F3401058B12068C068C0F3401030B198
:1028A0006FF02000216808612046FFF784FD10BD0D
:1028B00010B586B0044600BF00200090594800685B
:1028C00040F02000574908600846006800F02000EA
:1028D000009000BF00BF00BF0020009008460068C5
:1028E00040F0080008600846006800F0080000900A
:1028F00000BF00BF4C492068884220D100BF0020A3
:10290000009048481430006840F4003045491431C4
:1029100008600846006800F40030009000BF00BF67
:1029200042A0FDF729FD40200190022002900120E5
:1029300003900320059001A94248FEF7F7FD4249A4
:102940002068884220D100BF002000903548143014
:10295000006840F48020334914310860084600685C
:1029600000F48020009000BF00BF38A0FDF704FDF8
:102970008020019002200290012003900320059006
:1029800001A93048FEF7D2FD36492068884221D19E
:1029900000BF0020009023481030006840F0800005
:1029A0002049103108600846006800F0800000905F
:1029B00000BF00BF2CA0FDF7DFFC4FF4807001903A
:1029C00002200290012003900920059001A91D48D2
:1029D000FEF7ACFD2A492068884221D129A0FDF7E5
:1029E000CBFC00BF002000900E481030006840F083
:1029F00004000C49103108600846006800F004002B
:102A0000009000BF00BF4FF4704001900220029080
:102A1000012003900220059001A91F48FEF786FDC2
:102A200006B010BD3038024000440140B6A8CAB11B
:102A3000C6F73130D2FDBDC5B3F5CABCBBAFA3A14B
:102A4000000000000014024000480140B6A8CAB1CE
:102A5000C6F73131D2FDBDC5B3F5CABCBBAFA3A12A
:102A600000000000001C0040B6A8CAB1C6F7313310
:102A7000D2FDBDC5B3F5CABCBBAFA3A10000000029
:102A800000080040B6A8CAB1C6F734D2FDBDC5B330
:102A9000F5CABCBBAFA3A100000C0240704770B5E3
:102AA00004460D46164600BF94F83800012801D1AF
:102AB000022070BD012084F8380000BF022084F895
:102AC000390036B1042E1BD0082E31D00C2E5ED129
:102AD00045E02946206801F061F82068806940F0EF
:102AE0000800216888612068806920F0040021685E
:102AF000886120688069296908432168886147E006
:102B00002946206801F082F82068806940F400605E
:102B1000216888612068806920F48060216888616C
:102B200020688069296940EA0120216888612FE0D6
:102B30002946206801F0A6F82068C06940F0080026
:102B40002168C8612068C06920F004002168C8615C
:102B50002068C069296908432168C86118E02946CE
:102B6000206801F0CBF82068C06940F4006021685B
:102B7000C8612068C06920F480602168C86120684D
:102B8000C069296940EA01202168C86100E000BFEE
:102B900000BF012084F8390000BF002084F838000D
:102BA00000BF00BF85E710B504460CB9012010BD79
:102BB00094F8390028B9002084F83800204600F045
:102BC0000CF8022084F83900211D206800F050FF25
:102BD000012084F839000020E9E7704770470000C1
:102BE00030B504460D4601222946206800F0B2FFA8
:102BF0000C492068884203D00B492068884201D1E3
:102C0000012000E0002028B12068406C40F4004022
:102C1000216848642068006840F00100216808606D
:102C2000002030BD000001400004014030B50446E2
:102C30000D4600222946206800F08CFF1B492068C1
:102C4000884203D01A492068884201D1012000E05F
:102C5000002090B100BF2068006A41F211110840C5
:102C600050B92068006A8910084028B92068406C73
:102C700020F400402168486400BF00BF2068006A5B
:102C800041F21111084050B92068006A89100840CB
:102C900028B92068006820F001002168086000BFA2
:102CA000012084F83900002030BD00000000014000
:102CB0000004014010B50446AF49206888426FD136
:102CC000AE480088401CAD490880AD48007850B13E
:102CD000AC4800880988884262D10020A749088052
:102CE00001F0A4FD5CE0A8480078002858D0A34873
:102CF0000088642808DCA1490988491EA34A32F8E3
:102D0000110001F06DFD4BE09E48008864389B493E
:102D10000988884218DC994800889A4909888842BD
:102D200012DA9B480088401E994908809749984AC2
:102D3000128831F8120001F053FD9548008808BB55
:102D40006420934908802BE08C4800888D490988CD
:102D5000884225DB00208949088001F067FD8D4805
:102D600000788D49097888421AD18C4800788A49C0
:102D70000978884207DB0020874908708549087078
:102D8000874908700CE084480078401C824908702C
:102D900080480078401C7F490870012080490870F5
:102DA0008049206888426FD17F480088401C7E4956
:102DB00008807348007850B17C48008809888842B0
:102DC00062D100207849088001F0FCFD5CE06E488B
:102DD0000078002858D074480088642808DC7249BC
:102DE0000988491E694A32F8110001F0C5FD4BE01F
:102DF0006E48008864386C490988884218DC6A4843
:102E000000886A490988884212DA69480088401EA9
:102E1000674908805D49664A128831F8120001F05E
:102E2000ABFD6348008808BB6420614908802BE043
:102E30005D4800885D490988884225DB00205A49A1
:102E4000088001F0BFFD5B4800785B490978884243
:102E50001AD15248007858490978884207DB012086
:102E600055490870534908704D4908700CE05248A4
:102E70000078401C504908704E480078401C4D496D
:102E800008700120464908704C492068884272D178
:102E90004B480088401C4A4908803948007850B1A6
:102EA000484800880988884265D100204449088044
:102EB00001F0A2FE5FE03448007800285BD0404873
:102EC0000088B0F57A7F08DC3D490988491E3E4AF2
:102ED00032F8110001F046FE4DE03A480088A0F5B6
:102EE0007A7037490988884219DC354800883549A5
:102EF0000988884213DA35480088401E3349088023
:102F00003149324A128831F8120001F02BFE2F4865
:102F1000008810BB4FF47A702C4908802BE02848B9
:102F2000008828490988884225DB00202449088038
:102F300001F062FE264800782649097888421AD1B5
:102F40001648007823490978884207DB0120214987
:102F500008701F490870124908700CE01D4800787D
:102F6000401C1C4908701A480078401C1849087019
:102F700001200B49087010BD004401408200002070
:102F80008D0000202C0000208E000020782D0020D5
:102F9000840000208A0000207300002076000020BA
:102FA0007700002000480140800000202E00002013
:102FB000860000208B00002074000020001C0040D0
:102FC0007E00002030000020A8250020880000207E
:102FD0008C000020750000207047704701460022D9
:102FE000002391F8392091F83A3042EA0300704703
:102FF0002DE9F0470446206805682068C668206807
:1030000047694FF00008C14605F00F08B8F1000FFE
:103010000AD105F0200038B106F0200020B120468A
:1030200000F0F1FEBDE8F087B8F1000F6DD007F0B9
:10303000010018B906F49070002866D005F0010070
:1030400030B106F4807018B1E06B40F00100E0632D
:1030500005F0040030B107F0010018B1E06B40F05A
:103060000200E06305F0020030B107F0010018B182
:10307000E06B40F00400E06305F0080030B107F0B9
:10308000010018B1E06B40F00800E063E06B68B34A
:1030900005F0200028B106F0200010B1204600F015
:1030A000B2FE20684069C0F38019E06B00F00800B0
:1030B00010B9B9F1000F22D0204600F084FE20683C
:1030C000406900F04000B0B12068406920F0400045
:1030D00021684861606B50B11748616B0865606B8F
:1030E000FEF70FFA10B1606B016D88470CE02046C7
:1030F000FFF773FF08E02046FFF76FFF04E020466C
:10310000FFF76BFF0020E0638CE705F0800030B133
:1031100006F0800018B1204601F076F882E705F04D
:10312000400030B106F0400018B1204600F05BFED0
:1031300078E700BF76E70000B33D000810B504460D
:103140000CB9012010BDA06900B100E000BF94F8E7
:10315000390028B9002084F83800204600F028F80B
:10316000242084F839002068C06820F400502168C9
:10317000C860204600F094FE2068006920F490406A
:10318000216808612068406920F02A0021684861B0
:103190002068C06840F400502168C8600020E063E7
:1031A000202084F8390084F83A000020CAE70000A3
:1031B00010B586B004462249206888423ED100BF3F
:1031C000002000901F48006840F001001D49086081
:1031D0000846006800F00100009000BF00BF00BF7B
:1031E0000020009017481430006840F01000154986
:1031F000143108600846006800F01000009000BF1D
:1032000000BF481501900220029001200390022087
:1032100004900720059001A90B48FEF787F94FF4A9
:103220008060019001A90848FEF780F92520FEF78B
:10323000E2FA032211462520FEF7EAFA06B010BD95
:1032400000100140303802400000024010B5034633
:1032500093F83A00202829D101B10AB9012010BD04
:1032600000BF93F83800012801D10220F7E70120C0
:1032700083F8380000BF99629A85DA850020D86308
:10328000222083F83A0000BF002083F8380000BFF6
:103290001868406940F001001C6860611868C068E7
:1032A00040F490701C68E0600020D8E70220D6E768
:1032B000264A0168914248D125490978A52902D1B9
:1032C0000121244A11702349097801293DD122495D
:1032D000098801F4004111BB1F49098801F48041AC
:1032E00099B11B4909780A2905D000211A4A118091
:1032F000184A117029E01849098841F40041164A1A
:1033000011800021134A11701FE0114909780D291D
:1033100006D11149098841F480410F4A118014E017
:103320000B4909780C4A1288C2F30D020B4B9954D1
:1033300009490988491C084A118011460988C7298A
:1033400003DD00211180034A117070470010014015
:103350001F0000201E0000201C0000209000002004
:103360002DE9F84304460D4616461F464FF0000966
:1033700094F8390020285CD105B116B90120BDE8C8
:10338000F88300BF94F83800012801D10220F6E745
:10339000012084F8380000BF0020E063212084F879
:1033A0003900FEF7D1F98146A684E6842BE0E08C53
:1033B000401EE084A068B0F5805F16D14B46002225
:1033C00080212046009700F053FF08B10320D6E784
:1033D000A846B8F80000C0F30800216848602069DA
:1033E00008B9AD1C0FE06D1C0DE04B46002280219A
:1033F0002046009700F03CFF08B10320BFE715F816
:10340000010B21684860E08C0028D0D14B46002297
:1034100040212046009700F02BFF08B10320AEE7C3
:10342000202084F8390000BF002084F8380000BF55
:10343000A5E70220A3E7704700BFFEE700B587B00D
:1034400000BF002001901B48006840F001001949AE
:1034500008600846006800F00100019000BF00BF4E
:1034600000BF002001900846006840F0100008608E
:103470000846006800F01000019000BF00BF012066
:10348000029000200390022004900320059002A9DE
:103490000948FEF74BF81820029000200390012005
:1034A00004900320059002A90448FEF73FF807B0F6
:1034B00000BD000030380240000002400010024011
:1034C00010B50446012C01D1234908702248007828
:1034D00058B310212148FEF729F950B108211F489F
:1034E000FEF724F928B101211D48FEF71FF9012834
:1034F0001BD10A2001F008FE002017490870102196
:103500001648FEF713F908B9012010BD0821134829
:10351000FEF70CF908B90220F7E701211048FEF781
:1035200005F9012815D10420EFE710210B48FEF71B
:10353000FDF801280DD108210848FEF7F7F8012809
:1035400007D101210648FEF7F1F810B90120024920
:1035500008700020D9E70000290000200010024078
:103560000000024000B587B000BF00200190124863
:10357000006840F02000104908600846006800F02C
:103580002000019000BF00BF4FF4C06002900120F6
:10359000039004900320059002A90848FDF7C6FF98
:1035A000012251020548FEF7C9F8012291020348A1
:1035B000FEF7C4F807B000BD3038024000140240E6
:1035C00010B500F027F80021532001F089F8002100
:1035D000532001F04FF90021532001F027FAF1EEBA
:1035E000001A9FED061ADFED060A9FED060A06494E
:1035F0000648FDF70DFF00F031F810BD000048430C
:103600000000484500007A44A825002078140020D6
:1036100000BFFEE700B587B000BF002001900D4855
:10362000006840F008000B4908600846006800F098
:103630000800019000BF00BF4FF4606002900120BD
:10364000039004900320059002A90348FDF76EFF44
:1036500007B000BD30380240000C02409FED0E1A4A
:10366000B0EE410A9FED0D1AC1EE001ABCEEE11A50
:1036700011EE100A0A4908809FED0A1AF0EE410A7D
:103680009FED061AC1EE201ABCEEE11A11EE100AE7
:1036900005490880704700000000FA4400401C46BD
:1036A0006800002000007A456A0000207047000092
:1036B00002480068C0F30220704700000CED00E0F3
:1036C00010B5002807DA0A07140E054A00F00F03A8
:1036D0001B1FD45403E00A07130E024A135410BDF3
:1036E00018ED00E000E400E07047000070B504460B
:1036F0000D460EA0FCF740FE95F90000D4ED000A3F
:10370000B0EE600A01F04AF895F90100D4ED010A23
:10371000B0EE600A01F00EF995F90200D4ED020A4C
:10372000B0EE600A01F0E0F970BD00005343415271
:10373000415F436F6E74726F6C210D0A00000000D0
:1037400010B51348134908604FF482704860002197
:1037500010488160C160022101610121416149027B
:1037600081613821C16100210162416281620721CA
:10377000C162FEF701FC07480068006840F04000A5
:10378000044909680860FF2000F006F810BD000039
:10379000003001401002002001B582B04FF47A7071
:1037A000012301AA02A900900248FEF76FFC9DF8D0
:1037B00004000EBD1002002010490968096821F0BC
:1037C00040010E4A126811600C49096809684FF6F9
:1037D000C7721140094A12681160084909680968EE
:1037E0000143064A1268116004490968096841F0FA
:1037F0004001024A12681160704700001002002068
:10380000F8B504460D4616462B4600228021204678
:10381000009600F009F828B1606D40F02000606566
:103820000320F8BD0020FCE72DE9F04104460E46D8
:1038300017461D46DDF818803FE0681CE0B32DB147
:10384000FDF782FFA0EB0800A84236D3206840684D
:1038500020F0E000216848606068B0F5827F0DD1FB
:10386000A068B0F5004F03D0A068B0F5806F05D117
:103870002068006820F0400021680860A06AB0F568
:10388000005F0ED100BF206800684DF6FF71084050
:10389000216808602068006840F4005021680860D2
:1038A00000BF012084F8510000BF002084F85000C0
:1038B00000BF0320BDE8F081FFE72068806830404A
:1038C000B04201D1012000E00020B842B5D1002073
:1038D000F0E770472DE9F04192B00446884615465E
:1038E0001E46002700BF002000902448006840F0DA
:1038F0008050224908600846006800F0805000901F
:1039000000BF00BF00BF002000901D48006840F4C9
:1039100080401B4908600846006800F48040009021
:1039200000BF00BF012006900004079002200C9009
:1039300041050D91CDF838800F941095119606A889
:10394000FEF7F6F807460FB100BFFEE70F20019023
:1039500002200290002003904FF4A05004904FF4F6
:1039600080500590052101A8FDF7A4FF07460FB17F
:1039700000BFFEE712B0BDE8F08100004038024011
:103980000070004010B5FDF7E5FE10BD144800685A
:1039900040F47000124908601248006840F00100CD
:1039A0001049086000200F49083108600D48006880
:1039B0000D4908400B4908600C48091D0860081FA4
:1039C000006820F48020091F0860002005490C31A0
:1039D00008604FF0006002498039086070470000BD
:1039E00088ED00E000380240FFFFF6FE10300024B2
:1039F00010B50248FEF791FE10BD0000C413002070
:103A000010B50248FEF789FE10BD000088130020A3
:103A100010B50248FEF781FE10BD000068120020BC
:103A200010B50248FEF779FE10BD0000A412002078
:103A300010B50248FEF771FE10BD0000E012002034
:103A400010B50248FEF769FE10BD00009801002085
:103A500010B50248FEF761FE10BD0000D401002041
:103A600010B50248FEF759FE10BD000000140020FA
:103A7000002202682C4B98420ED0B0F1804F0BD040
:103A80002A4B984208D02A4B984205D0294B98429D
:103A900002D0294B984201D1012300E000231BB141
:103AA00022F070024B681A431F4B984220D0B0F1AD
:103AB000804F1DD01D4B98421AD01D4B984217D0F5
:103AC0001C4B984214D01C4B984211D01B4B98426F
:103AD0000ED01B4B98420BD01A4B984208D01A4B71
:103AE000984205D0194B984202D0194B984201D107
:103AF000012300E000231BB122F44072CB681A437B
:103B000002608B68C3620B688362074B984202D0E5
:103B1000094B984201D1012300E000230BB10B694E
:103B2000036301234361704700000140000400402B
:103B300000080040000C004000040140004001402B
:103B4000004401400048014000180040001C0040B3
:103B50000020004030B50023012404FA01F3046A78
:103B60009C430462046A02FA01F52C43046230BDEE
:103B700030B50C460021816821F47F4142EA0325DB
:103B800025432943816030BD0A460021816821F028
:103B9000700142F0070319438160704730B500247B
:103BA00000220023056A25F001050562026A4368C8
:103BB000846924F0700424F003040D682C4322F07F
:103BC00002028D682A430F4DA84202D00E4DA84232
:103BD00001D1012500E000256DB122F00802CD6879
:103BE0002A4322F0040223F4807323F400734D6906
:103BF0002B438D692B43436084614D6845630262AA
:103C000030BD0000000001400004014030B5002438
:103C100000220023056A25F010050562026A436848
:103C2000846924F4E04424F440740D6844EA0524D3
:103C300022F020028D6842EA0512104DA84202D0FF
:103C40000F4DA84201D1012500E0002585B122F0E9
:103C50008002CD6842EA051222F0400223F480631C
:103C600023F400634D6943EA85038D6943EA8503C4
:103C7000436084614D688563026230BD000001408D
:103C80000004014030B5002400220023056A25F419
:103C900080750562026A4368C46924F0700424F0E8
:103CA00003040D682C4322F400728D6842EA052259
:103CB000104DA84202D0104DA84201D1012500E0CC
:103CC000002585B122F40062CD6842EA052222F483
:103CD000806223F4805323F400534D6943EA0513B3
:103CE0008D6943EA05134360C4614D68C563026290
:103CF00030BD0000000001400004014030B500224A
:103D000000230024056A25F480550562036A44688F
:103D1000C26922F4E04222F440720D6842EA0522B0
:103D200023F400538D6843EA05330A4DA84202D0BC
:103D3000094DA84201D1012500E0002525B124F458
:103D400080444D6944EA85144460C2614D6805644D
:103D5000036230BD000001400004014030B50B4655
:103D6000144600210022026A056A25F00105056259
:103D7000816921F0F00141EA041122F00A021A439C
:103D80008161026230BD30B50B461446002100222D
:103D9000056A25F0100505628169026A21F4704107
:103DA00041EA043122F0A00242EA03128161026278
:103DB00030BD70B50546AC6B0020E085E084204640
:103DC000FFF70BF970BD0168C96821F490710268B2
:103DD000D1600168496921F0010102685161202127
:103DE00080F83A10704710B504462068C06820F08B
:103DF00040002168C860202084F839002046FFF781
:103E00001AFB002010BD70B5044694F83A00222831
:103E100044D1A068B0F5805F13D1A56A206940B98C
:103E200020684068C0F308002880A06A801CA06257
:103E300019E020684068C0B22880A06A401CA062D7
:103E400011E0206938B920684068C1B2A26A501CEC
:103E5000A062117007E02068406800F07F01A26A4C
:103E6000501CA0621170E08D401E80B2E08598B9B0
:103E70002068C06820F490702168C860206840699C
:103E800020F0010021684861202084F83A00204693
:103E9000FFF70EFA002070BD0020FCE70220FAE7D1
:103EA0002DE9F041044600252068056925F44055B8
:103EB000E0680543206805612068C56849F20C6028
:103EC00085432169A068084361690843E1690843A3
:103ED00005432068C5602068456925F44075A069E0
:103EE000054320684561E069B0F5004F7ED1C449C3
:103EF0002068884203D0C349206888425DD1FDF71D
:103F0000AFFD00EBC00101EB001061684900B0FBA0
:103F1000F1F06421B0FBF1F00601FDF7A1FD00EB2B
:103F2000C00101EB001061684900B0FBF1F7FDF73B
:103F300097FD00EBC00101EB001061684900B0FB88
:103F4000F1F06421B0FBF1F000EBC00101EB0010D7
:103F5000A7EB8000322101EBC0006421B0FBF1F03F
:103F600000F0F80006EB4006FDF77AFD00EBC0011B
:103F700001EB001061684900B0FBF1F7FDF770FD3F
:103F800000EBC00101EB001061684900B0FBF1F0EB
:103F90006421B0FBF1F000EBC00101EB0010A7EBD6
:103FA0008000322101EBC0006421B0FBF1F000F091
:103FB000070030442168886020E1FDF741FD00EBF7
:103FC000C00101EB001061684900B0FBF1F0642111
:103FD000B0FBF1F00601FDF733FD00EBC00101EB92
:103FE000001061684900B0FBF1F700E045E0FDF723
:103FF00027FD00EBC00101EB001061684900B0FB38
:10400000F1F06421B0FBF1F000EBC00101EB001016
:10401000A7EB8000322101EBC0006421B0FBF1F07E
:1040200000F0F80006EB4006FDF70AFD00EBC001CA
:1040300001EB001061684900B0FBF1F7FDF700FDEE
:1040400000EBC00101EB001061684900B0FBF1F02A
:104050006421B0FBF1F000EBC00101EB0010A7EB15
:104060008000322101EBC0006421B0FBF1F000F0D0
:104070000700304421688860C0E0614920688842B8
:1040800003D06049206888425CD1FDF7E9FC00EB71
:10409000C00101EB001061688900B0FBF1F6FDF78B
:1040A000DFFC00EBC00101EB001061688900B0FB90
:1040B000F1F06421B0FBF1F000EBC00101EB001066
:1040C000A6EB8000322101EB00106421B0FBF1F07F
:1040D00000F0F006FDF7C4FC00EBC00101EB00109E
:1040E00061688900B0FBF1F06421B0FBF1F006EBF0
:1040F0000016FDF7B5FC00EBC00101EB0010616894
:104100008900B0FBF1F7FDF7ABFC00EBC00101EB60
:10411000001061688900B0FBF1F06421B0FBF1F0A0
:1041200000EBC00101EB0010A7EB8000322101EB96
:1041300000106421B0FBF1F000F00F003044216862
:1041400088605BE0FDF77CFC00EBC00101EB001038
:1041500061688900B0FBF1F6FDF772FC00EBC0016D
:1041600001EB001061688900B0FBF1F06421B0FB45
:10417000F1F000EBC00101EB0010A6EB8000322152
:1041800001EB00106421B0FBF1F000F0F006FDF748
:1041900057FC00EBC00101EB001061688900B0FB27
:1041A000F1F06421B0FBF1F006EB0016FDF748FCDE
:1041B00000EBC00101EB001061688900B0FBF1F772
:1041C000FDF73EFC00EBC00101EB001061688900C7
:1041D000B0FBF1F06421B0FBF1F000EBC00101EBAA
:1041E0000010A7EB8000322101EB00106421B0FB2E
:1041F000F1F000F00F00304421688860BDE8F081E4
:104200000010014000140140014691F839002128B6
:104210002CD18868B0F5805F0FD10A6A1088C0F38E
:1042200008000B685860086918B9086A801C0862A1
:1042300009E0086A401C086205E00B6A581C086225
:1042400018780B685860C88C401E80B2C88458B972
:104250000868C06820F080000B68D8600868C068F3
:1042600040F040000B68D860002070470220FCE757
:104270002DE9F04104460D4617469846069E21E07A
:10428000701CF8B12EB1FDF75FFAA0EB0800B04248
:1042900018D92068C06820F4D0702168C8602068F0
:1042A000406920F0010021684861202084F839002D
:1042B00084F83A0000BF002084F8380000BF0320D3
:1042C000BDE8F081206800682840A84201D10120A3
:1042D00000E00020B842D3D00020F1E710B5002460
:1042E0000C48FEF785FE00BF01E0641C00BF0948D2
:1042F000FEF774FE2028F8D100BF002401E0641C02
:1043000000BF012204490348FEF7A0FF0028F6D1B0
:1043100000BF10BD580100201F00002000BFFEE7B5
:1043200010B50446240300F059F900F0F1F800201C
:104330000F4908602020FFF72FFA0E4800884EF63C
:104340001871884202D1200EFFF726FAC4F3074005
:10435000FFF722FAC4F30720FFF71EFAE0B2FFF7D7
:104360001BFA01200249086000F0D2F810BD0000DD
:10437000B88240422A00002010B586B000BF00205D
:1043800000901F48006840F002001D490860084680
:10439000006800F00200009000BF00BF4FF48040B2
:1043A00001900120029003900220049001A9154879
:1043B000FDF7BCF8012014490860FFF7C1F900209F
:1043C000FFF7FAF900F058F810490880084600880D
:1043D0004EF61871884210D1032000F071F804469F
:1043E00004F0010048B9002007490860B720FFF732
:1043F000D3F901200649C1F8B80206B010BD00008B
:104400003038024000040240B88240422A000020B6
:10441000008040422DE9F04106460C461746002038
:10442000134908600320FFF7B7F9124800884EF6D9
:104430001871884202D1200EFFF7AEF9C4F307408D
:10444000FFF7AAF9C4F30720FFF7A6F9E0B2FFF7D8
:10445000A3F9002505E0FF20FFF79EF97055681CC1
:1044600085B2BD42F7DB012001490860BDE8F0815B
:10447000B88240422A00002010B5002400200E49D6
:1044800008609020FFF788F90020FFF785F90020E9
:10449000FFF782F90020FFF77FF9FF20FFF77CF993
:1044A00044EA0024FF20FFF777F904430120034981
:1044B000C1F8B802204610BDB88240420080404298
:1044C00070B5044600250026012C04D0022C04D02F
:1044D000032C06D103E0052605E0352603E015266A
:1044E00001E0052600BF00BF0020074908603046F4
:1044F000FFF752F9FF20FFF74FF905460120034966
:10450000C1F8B802284670BDB882404200804042DF
:1045100010B500BF0120FFF7D3FF00F00100002815
:10452000F8D110BD2DE9F05F81460F461646DFF841
:10453000A8B04FEA1738C7F30B0ACAF58054A64251
:1045400000DC344644E04FEA08314FF480525846CC
:10455000FFF760FF002508E00AEB05001BF80000EC
:10456000FF2800D003E0681C85B2A542F4DB00BF41
:10457000A54216DA4046FFF7D3FE002507E019F8FA
:10458000050005EB0A010BF80100681C85B2A54285
:10459000F5DB4FEA08314FF48052584600F02EF810
:1045A00004E022463946484600F028F8A64200D1E9
:1045B0000FE008F101084FF0000AA1442744301B26
:1045C00086B2B6F5805F02DD4FF4805400E03446D9
:1045D000B9E700BFBDE8F09F6802002010B50020D9
:1045E000044908600620FFF7D7F801200249C1F806
:1045F000B80210BDB8824042008040422DE9F0412F
:1046000007460E461446F0B2C0F58075AC4200DC99
:10461000254612E02A463146384600F013F8AC42EF
:1046200000D10BE02F442E44601B84B2B4F5807F90
:1046300002DD4FF4807500E02546EBE700BFBDE8E2
:10464000F08100002DE9F04106460C461746FFF7C1
:10465000C5FF0020144908600220FFF79DF81348A9
:1046600000884EF61871884202D1200EFFF794F8A8
:10467000C4F30740FFF790F8C4F30720FFF78CF866
:10468000E0B2FFF789F8002504E0705DFFF784F8D9
:10469000681C85B2BD42F8DB012003490860FFF7C2
:1046A00037FFBDE8F0810000B88240422A000020B8
:1046B000B3EE0E1A20EE011AB1EE042AC1EE021A70
:1046C000B6EE001A31EE811AF0EE410ABCEEE01AA5
:1046D00011EE100A01490880704700002C000020EC
:1046E00030B58DB005460C4624482549086008467B
:1046F000456000218160C4600161FDF78EFE18B144
:104700001A2120A000F084FA4FF48050099009A9E2
:104710001B48FDF768FF18B120211AA000F078FAB5
:104720001748FEF740FA18B1252116A000F070FADC
:1047300000200790089007A91148FDF73DFE18B129
:104740002C2110A000F064FA60200090204604EBB9
:10475000D071491001910020029004900022694616
:104760000748FEF79CF918B1352106A000F050FA71
:104770000348FEF79DF80DB030BD00000044014035
:10478000881300202E2E5C48415244574152455C0C
:104790005372635C70776D2E6300000010B52DEDD1
:1047A000028BB0EE408A0446002C05DD0122510246
:1047B0000A48FCF7C3FF07E0002C05DA00224FF49B
:1047C00000710648FCF7BAFFB0EE480AFFF770FF29
:1047D00000F018F8BDEC028B10BD0000000C024088
:1047E00000BF07490968C8620549C86000BF0146A3
:1047F00000EBD1725210024B1B685A6370470000E5
:104800008813002010B508480068006840F00100D7
:104810000549096808600448FDF7BAFE002102480E
:10482000FEF7DEF910BD00008813002010B5044823
:10483000FDF7BDFE00210248FEF7F8F910BD0000AB
:1048400088130020B3EE0E1A20EE011AB1EE042AEE
:10485000C1EE021AB6EE001A31EE811AF0EE410AEC
:10486000BCEEE01A11EE100A014908807047000002
:104870002E00002030B58DB005460C462448254951
:1048800008600846456000218160C4600161FDF751
:10489000C4FD18B1482120A000F0BAF94FF48050AF
:1048A000099009A91B48FDF79EFE18B14E211AA0D8
:1048B00000F0AEF91748FEF776F918B1532116A0AB
:1048C00000F0A6F900200790089007A91148FDF70D
:1048D00073FD18B15A2110A000F09AF960200090E1
:1048E000204604EBD0714910019100200290049001
:1048F000002269460E48FEF7D2F818B1632106A0DF
:1049000000F086F90348FDF7D3FF0DB030BD00007D
:1049100000480140C41300202E2E5C4841524457E9
:104920004152455C5372635C70776D2E63000000EA
:104930008813002010B52DED028BB0EE408A04469E
:10494000002C05DD012291020A48FCF7F7FE07E082
:10495000002C05DA00224FF480610648FCF7EEFED9
:10496000B0EE480AFFF76EFF00F018F8BDEC028BBE
:1049700010BD0000000C024000BF07490968C86272
:104980000549C86000BF014600EBD1725210024BCE
:104990001B685A6370470000C413002010B5084814
:1049A0000068006840F00100054909680860044893
:1049B000FDF7EEFD00210248FEF712F910BD0000E0
:1049C000C413002010B50448FDF7F1FD0021024892
:1049D000FEF72CF910BD0000C413002010B52DED1A
:1049E000028BB0EE408A9FED0A0A28EE000AF0EE34
:1049F000408ABCEEE80A10EE100A06490880084614
:104A0000018805A0FBF7B8FCBDEC028B10BD0000CF
:104A10000000484430000020D6D0B6CFB4CECAFD46
:104A2000CEAAA3BA25640D0A0000000030B58DB0EF
:104A300005460C4624482549086008464560002183
:104A40008160C4600161FDF7E8FC18B1752120A008
:104A500000F0DEF84FF48050099009A91B48FDF7DB
:104A6000C2FD18B17B211AA000F0D2F81748FEF75A
:104A70009AF818B1802116A000F0CAF8002007901B
:104A8000089007A91148FDF797FC18B1872110A0DD
:104A900000F0BEF860200090204604EBD071491071
:104AA0000191002002900490002269460748FDF71A
:104AB000F6FF18B1902106A000F0AAF80348FDF710
:104AC000F7FE0DB030BD0000001C004000140020B7
:104AD0002E2E5C48415244574152455C5372635CF0
:104AE00070776D2E6300000010B52DED048B82B041
:104AF000B0EE408A044618EE100A01F02BF941ECA2
:104B0000190B53EC192B11A00094FBF735FC002C6A
:104B100005DD0122D1021248FCF710FE07E0002C4F
:104B200005DA00224FF400610D48FCF707FEB0EEF5
:104B3000480AFFF753FFB2EE040A00F025F800F030
:104B400047F802B0BDEC048B10BD0000BEE0C0EB26
:104B5000CEAA25662CB7BDCFF2CEAA25640D0A00D9
:104B6000000C024000BF07490968C8620549C860D7
:104B700000BF014600EBD1725210024B1B685A6312
:104B800070470000001400209FED0E1A20EE011A5D
:104B9000F0EE410A9FED0C1AC1EE201ABCEEE11AAC
:104BA00011EE101A88B200BF08490968C8620749A7
:104BB000C86000BF014600EBD1725210034B1B6866
:104BC0005A6370470000484400401C46001400200F
:104BD00010B508480068006840F001000549096800
:104BE00008600448FDF7D4FC00210248FDF7F8FFF7
:104BF00010BD00000014002010B50448FDF7D7FCDC
:104C000000210248FEF712F810BD00000014002039
:104C100000BFFEE703B401984100009850EAC120AC
:104C200018BF04204A0D18BF40F0010040F2FF7287
:104C3000B2EB515F08BF40F00200012808BF052019
:104C400002B070470000000070B52DED020B2DED95
:104C50000A8B82B00D98C40F20F00045AE48854203
:104C600048D3AE48854219D30C99C5F313000843C5
:104C700009D09DED0C0B02B0BDEC0A8B02B0BDE873
:104C8000704000F009BA002C14BF9FEDA50B9DEDFC
:104C90000C0B02B0BDEC0A8B02B070BD9FEDA20BF5
:104CA00053EC102B9DED0C0B51EC100B00F026FF7C
:104CB0000AD20220FBF7E5FB02B0BDEC0A8B02B082
:104CC000BDE8704000F0F4B99FED990B53EC102B48
:104CD0009DED0C0B51EC100B00F0D6FD0AD202201A
:104CE000FBF7CFFB02B0BDEC0A8B02B0BDE8704011
:104CF00000F0EEB990489FED92BBA8425CD292487A
:104D0000854219D29148784400EBC40090ED000B25
:104D100053EC102B9DED0C0B51EC100B00F030FF01
:104D200041EC1A0B8A48784400EBC40090ED009BDC
:104D3000C4F10100041B36E09FED870B53EC102BF0
:104D40009DED0C0B51EC100B00F0DAFD41EC100B5B
:104D50008348784400EBC40090ED001B51EC100B2D
:104D600053EC112B00F03EFB00F048FD044600F030
:104D700074FD41EC180B9FED7C0B53EC102B00F0F5
:104D8000BFFD9DED0C1B53EC112B00F0EDFE41EC33
:104D90001A0B9FED770B51EC180B53EC102B00F016
:104DA000AFFD41EC190B51EC1A0B53EC192B00F031
:104DB000E7FECDE90C011BE06F48854217D29FED5D
:104DC000700B53EC102B9DED0C0B51EC100B00F005
:104DD00009FB53EC1B2B00F091FE08D29DED0C0B50
:104DE00053EC1B2B51EC100B00F0FCFA6EE000248E
:104DF0009DED0C0B53EC102B51EC100B00F080FDD3
:104E000041EC180B60480521B0EE480AF0EE680A44
:104E1000784400F0C5F853EC182B51EC100B00F05F
:104E20006FFD9DED0C1B53EC112B00F09DFE41EC32
:104E3000180B9FED570B5CB353EC182B51EC100B78
:104E400000F09EFE9DED0C0B41EC1C0B53EC182B5F
:104E500051EC100B00F054FD53EC1C2B00F076FBD2
:104E600053EC192B00F080FE53EC1A2B00F088FE57
:104E700053EC1B2B00F078FECDE900016FF47F703E
:104E8000844226DB01EB045001909DED000B00E70E
:104E900053EC102B51EC180B00F072FE9DED0C0B37
:104EA00041EC190B53EC182B51EC100B00F028FDC2
:104EB00053EC192B00F04AFB9DED0C1B53EC112B0E
:104EC00000F05EFE53EC1B2B00F04EFE41EC100B8D
:104ED000DFE608464FF07A5101EB04519FED2E0BAF
:104EE000084453EC102B01909DED000B51EC100B7E
:104EF00000F006FD0D4645EC100B044651EC100B7E
:104F0000FFF788FE042808BF00F0E2F845EC104BDC
:104F1000BFE6000000000000422E86400000F07F47
:104F20000000000000000000EF39FAFE422E86402B
:104F300051302DD5104987C0422ED63F00000000C9
:104F4000000000000000F03FB2A2F03F8E11000010
:104F50007E11000000000000FE822B654715F73F20
:104F600032110000000000000000E0FE422EE63F8B
:104F7000763C7935EF39EA3D0000303E0000000014
:104F80009C7500883CE4377EA410000000000000FF
:104F90000000000000000040000000000000700160
:104FA00070B504462DED028B4D1E00EBC500B0EE32
:104FB000408AF0EE608A90ED000B35F0060017D0C5
:104FC00053EC182B51EC100B00F09AFC41EC100B39
:104FD0006D1E04EBC50090ED001B51EC100B53EC63
:104FE000112B00F0FFF941EC100B35F00600E7D172
:104FF000022D36D0042D1CD0062D1CBFBDEC028B1B
:1050000070BD53EC182B51EC100B00F079FC94EDB3
:105010000A1B53EC112B00F0E5F953EC182B00F0B0
:105020006FFC94ED081B53EC112B00F0DBF941EC05
:10503000100B53EC182B51EC100B00F061FC94EDAD
:10504000061B53EC112B00F0CDF953EC182B00F09C
:1050500057FC94ED040B53EC102B00F0C3F941EC1A
:10506000100B53EC182B51EC100B00F049FC94ED95
:10507000021B53EC112B00F0B5F953EC182B00F088
:105080003FFC94ED001B53EC112B00F0ABF9BDEC91
:10509000028B41EC100B70BD10B553EC102B51EC92
:1050A000100B00F09FF941EC100B10BD0000000048
:1050B0009FED050B10B553EC102B51EC100B00F0CD
:1050C0001FFC41EC100B10BD000000000000007040
:1050D0009FED050B10B553EC102B51EC100B00F0AD
:1050E0000FFC41EC100B10BD000000000000001090
:1050F00000BF704710B504460420FDF72DF90148A4
:10510000046010BD1400002030B50446002504E002
:105110004FF47A7000F004F86D1CA542F8D330BD4E
:1051200070B5034600224FF0E02675690D4E3668D3
:1051300003FB06F44FF0E026B16910E04FF0E026E3
:10514000B06988420BD0884202D20E1A324402E083
:105150002E1A0E4432440146A24200D300E0EDE78D
:1051600000BF70BD1400002000BF054A126802F0A5
:105170004002002AF9D0C2B2014B5A6070470000C9
:10518000001001408AB0002500BF0027FCF7EEFAAE
:105190000423022208214FF4A870FEF79BFBA820ED
:1051A000FFF7A8FF4FF4E13000F0B8F8FEF7DAF9A6
:1051B000FEF744F9FFF7E0F8FEF7C2FAFEF700FA4F
:1051C0000EE04FF47A70FFF79FFF33A0FBF7D4F89F
:1051D0003648006808B9012000E000203349086023
:1051E000FFF74AF94EF614718842EAD130A0FBF776
:1051F000C3F84FF400144EE00020FEF761F90546B5
:10520000012D0BD12FA0FBF7B7F8A4F164012122E7
:105210003148FFF787F931A0FBF7AEF8022D0CD12A
:1052200032A0FBF7A9F8A4F16401212201A8FFF73D
:10523000F1F833493348FEF759FA701CC6B20A2018
:10524000FFF762FF142E0AD11848001D006808B944
:10525000012000E000201549091D086000262A48A9
:10526000008800F40040B0B1274807784FF47A7303
:105270003A4626492648FEF773F800BF24480068DE
:105280000068C0F380100028F8D022A0FBF774F863
:1052900000201D490880AFE7BCECB2E2B2BBB5BD4F
:1052A0005732355131360D0A00000000A4824242C7
:1052B000BCECB2E2573235513136B3C9B9A60D0A4A
:1052C00000000000D0B4C8EB573235513136CAFD6A
:1052D000BEDDA3A10D0A00004E5E0008D0B4C8EBED
:1052E000CDEAB1CFA3A1A3A10D0A0000B6C1C8A108
:1052F000573235513136CAFDBEDDA3A10D0A00007B
:105300000C000020000000201C0000209000002065
:10531000580100200D0A0D0A0000000010B50446D7
:1053200009480A4908600846446000218160C1605C
:10533000016181610C214161FDF700FF01220449F7
:105340000248FDF783FF10BD001001405801002006
:105350001F00002010B500290AD00878002807D0C7
:1053600005487844FBF756FC002801D0002010BD0A
:105370000248784410BD0000320C00002A0C0000E6
:1053800021F00042A2F16052B2F5801F01F000430B
:1053900028BFD2F17F6C0BD95FEA001C43EAC2023E
:1053A00042EB507018BF704728BF20F001007047D3
:1053B000B2F5801FBCBF184670474FEA410C1CF580
:1053C000001F02D2084600F03BBD70B500F042FB62
:1053D00000000089FFF7F6BF4FF00040A0F5800005
:1053E0007047000010B591EA030F48BF83F00043F7
:1053F00000F1CE83841A71EB030C05D2121943EB32
:105400000C03001B61EB0C01DFF824E14FEA11549F
:10541000A4EB135C1EEA430F18BF9EEA445F73D0EF
:1054200023EA0E03DCF1200E21EA045143F4801339
:1054300032D322FA0CFE10EB0E0023FA0CFE41EBE5
:105440000E01CCF1200E03FA0EFE10EB0E0051F10E
:105450000001B1F5801FCCF1200E32D201EB0451D6
:1054600012FA0EF2BDE8104058BF7047401C38BF1A
:105470005FEA420218BF7047002814BF20F0010005
:1054800041F100014FEA410313F5001F38BF704797
:10549000A1F1C04100F02CBB012A43EB0302ACF1A7
:1054A000200CDCF11F0E32BF4FF0000E23FA0CF37C
:1054B00010EB030041EB0451B4EB115FD0D0A1EB32
:1054C000045101F5801149085FEA300001EB0451F5
:1054D0000ED350F1000038BF12FA0EFE08D1BDE81D
:1054E0001040C9E7401C38BF5FEA4202CAD1C3E797
:1054F000BDE810404FEA410313F5001F38BF704765
:10550000A1F1C04100F0F4BA9EEA445F08D011EA6C
:105510005E0FBDE8104004BF01F00041002070475D
:10552000BDE8104070B500F095FA00BF64FBBE3EC8
:105530000000E0FF491058BFC1F140415B1058BF67
:10554000C3F140438B42EFF3008070472DE9C04127
:1055500030B4DFF8A0C23CEA111418BF3CEA1314BF
:1055600000F0EC8081EA03051CEA111444EAD574CA
:1055700018BF1CEA131500F0C780A4EB05044FF018
:10558000004545EAC12145EAC32341EA505143EAB7
:10559000525304F17F74994204F500344FEAC0205D
:1055A0004FEAC22208BF904200F09C804FEA136588
:1055B0000FF24016765D4FEA134506FB05F7C7F17B
:1055C000807706FB07F74FEAD737A7FB03687642D9
:1055D000C8F58038A7FB06CE38BFA8F1010807FB45
:1055E00008E64FF0000EA6FB028CE6FB03CEDCF1D2
:1055F000000CCEF1004E38BFAEF1010EA6FB0C58E8
:105600004FF000074FF00005E6FB0E87A1FB08C630
:10561000A0FB07CE16EB0E0645F10005E1FB076582
:1056200015F1E04E7EBFA4F580345FEA46066D4179
:1056300016F1800745F100054FEA17274FEA066685
:1056400047EA0567A6F1DE46B6F1805F4FEA152509
:105650001FD9384624F0010C05EBC471BCF1FE6F74
:1056600001EB0C1102D8F0BCBDE8008124425CBF04
:1056700001F5801E9EEAC47F02D4F0BCBDE8008123
:10568000244238D4F0BCA1F1C041BDE8004100F093
:105690002FBA4FEAD22242EA43524FEAD323A7FB62
:1056A00002864FEAD02040EA415007FB03661EEA1B
:1056B0000E0F4FEAD12105FB026658BFA6EB00563C
:1056C000B6EB00564FEA520E4EEAC37E18EB0E0EB2
:1056D00056EB530EBDD518EB02085E417F1C55F109
:1056E0000005B6E74FF480154FF000074FF00006B5
:1056F0004FF00008ADE7F0BC4FF0000001F1C041F1
:1057000001F00041BDE8008111EA0C1F0CEA1315FD
:1057100000D00CE013EA0C1F00F025804FF00000D1
:10572000F0BC81EA030101F00041BDE80081F0BC5A
:10573000BDE8004181EA030100F0DAB9F0BCBDE840
:10574000004170B500F086F9097EFC3E00F007B814
:1057500081EA03014FF0000001F00041704781EA47
:10576000030100F0C5B9F0BCBDE800414FF00000F6
:1057700021497047FFFDFBF9F7F5F4F2F0EEEDEB90
:10578000E9E8E6E4E3E1E0DEDDDBDAD8D7D5D4D33F
:10579000D1D0CFCDCCCBCAC8C7C6C5C4C2C1C0BF8B
:1057A000BEBDBCBBBAB9B8B7B6B5B4B3B2B1B0AF91
:1057B000AEADACABAAA9A8A8A7A6A5A4A3A3A2A175
:1057C000A09F9F9E9D9C9C9B9A9999989797969530
:1057D00095949393929191908F8F8E8E8D8C8C8BCC
:1057E0008B8A898988888787868585848483838254
:1057F000828181800000FF070000F87F4FEA4103AB
:105800004FEA5353A3F58063D3F11E03C8BFD3F10E
:10581000210C0CDD4FF0004242EAC12242EA505214
:1058200032FA03FC8CEAE17CACEBE1707047102BA0
:10583000C4BF0020704703F5787CBCF1FF3F04D063
:105840006FF0004282EA2100704770B500F002F963
:105850004992248000207047F2E710F0004248BFD0
:105860004042B0FA80F310FA03F10AD0C3F11D03ED
:1058700003F580634FEA415002EB035202EBD12162
:1058800070474FF00000704751EA030C17D41CF525
:10589000801F58BFBCF5801F00F10680994218BFD9
:1058A000704708BF9042704707D711F5801F58BF57
:1058B00013F5801F19D499427047894270471CF52F
:1058C000801F08D5BCF5801FF7D58B4218BF7047E5
:1058D00008BF824270474FF4001C1CEB410F38BFD9
:1058E0001CEB430F01D28B42704770B500F0B2F849
:1058F000922449004FF000514FF08053FFF71ABE39
:10590000DFF848C170B51CEA111E1EBF1CEA131552
:105910009EEA0C0F95EA0C0F00F06F8081EA0304F9
:1059200023EA4C134EEAD47E21EA4C1141F4801153
:1059300043F48013AE44A1FB024CA0FB0365AEF11F
:105940007F7E361955EB0C05A1FB034C4CF100038F
:10595000A0FB021C16EB0C06654153F10003094243
:1059600018BF46F0010613F4007F0BD14FEA033154
:105970004FEA0530340341EA155140EA16506FF002
:1059800003020AE04FEAC3214FEAC520F40241EACC
:10599000555140EA56506FF0020202EB2E4201EBE5
:1059A000025585EACE710AD05FEA440C18BF24F094
:1059B000004450F1000041F1000120EAD47040F2AF
:1059C000FE7C624500D270BDA84214BF4FF08044F7
:1059D0004FF04044002E08BF0024BEF1806FA8BFE6
:1059E000A1F1C041BDE8704080F282804FF000001C
:1059F00001F1C04101F0004170479EEA0C0F0CEA32
:105A0000131518BF95EA0C0F06D04FF0000081EA7D
:105A1000030E0EF0004170BD00F01CF88900013E3D
:105A200000F007B800F009B84FEA430C5FEA5C5C8D
:105A300008D081EA030100F05BB84FEA410C5FEA4D
:105A40005C5CF6D14FF00000014970470000FF0791
:105A50000000F87F0EF1020E2EF0030E5EF8046BCC
:105A6000364205D4012A43EB030515F5001F12D871
:105A7000012841EB010C1CF5001F0CD80ED14FEA98
:105A8000D17C15F5001F0CEB4C0C0CF1020C08BF7F
:105A90004CEBD37C04E04FF0080C01E04FEAD37CE0
:105AA0000CEB4C0526FA05F606F00706B6F1040CD9
:105AB00006D20EEB860CBDE870404CF0010C60473E
:105AC000DFE80CF0090B02024FF000414FF000003C
:105AD000A1F5002170BD19461046012851EB0104C3
